:100000000C94790E0C94C00E0C94C00E0C94C00E7F
:100010000C94C00E0C94C00E0C94C00E0C94C00E28
:100020000C94C00E0C94C00E0C941C310C94EE3148
:100030000C94B62B0C94C00E0C94C00E0C94C00EF5
:100040000C94C00E0C94C00E0C94C00E0C94C00EF8
:100050000C94C00E0C942B2C0C94C00E0C94C00E5F
:100060000C94C00E0C94C00E0C94C00E0C94C00ED8
:100070000C94C00E0C94C00E0C94C00E0C94C00EC8
:100080000C94C00E0C94C00E0C94C00E0C94C00EB8
:100090000C94C00E0C94C00E0C94C00E0C94C00EA8
:1000A0000C94C00E0C94C00E0C94C00E98129812B2
:1000B000CA12CA1217131E141E141E1435139D13D0
:1000C000AE13AE130E141E141E141714BA14BA1461
:1000D000CC14CC14C314CC14CC14CC14BA14BA144D
:1000E000C814CC14CC14C8144322462266227722AA
:1000F0007F228A22D022D022D022D022D0228D224A
:1001000090229522A222AF22B222B622C3225B32D3
:1001100082327A3382327A33CE32F1327A334833D2
:100120005733000000000000000000000000000045
:1001300000000000000000000000000000000000BF
:1001400000000000000000000000000000000000AF
:10015000000000000000000000000000000000009F
:10016000008080404040202020202018040201020E
:1001700004081020204040808000000000000000A3
:10018000000000000000000000000000000000006F
:10019000000000000000000000000000000000005F
:1001A000000000000000000000000000000000004F
:1001B000000000000000000000000000000000003F
:1001C000000000000000000000000000000000002F
:1001D00000000000003FC101010202040404040207
:1001E000020100000000000000008000004080804C
:1001F0004000003030000000000102040408081034
:1002000020408080808040404040202020201010EE
:100210001010080808080404040402020202010184
:1002200001010000000000000000000000000000CC
:1002300000000000000000000000000000000000BE
:1002400000000000000000000000000000000000AE
:1002500000000000E018060100000000000000009F
:100260000000008083834040404020212120101066
:1002700010100808080804040404040830408080B2
:1002800000000186986000000000000000000000EF
:10029000000000000000000000000000000000005E
:1002A000000000000000000000000000000000004E
:1002B000000000000000000000000000000000003E
:1002C000000080808080404040402020202010108E
:1002D0001010080F08080404040402040810102079
:1002E00020404041422418000000000000000000AF
:1002F00000000000000000000000000000000000FE
:1003000001010100000000000000000000000000EA
:1003100000000000000000000000000000000000DD
:1003200000000000000000000000000000000000CD
:1003300000000000000000000000000000000000BD
:1003400000000000000000000000000000000000AD
:10035000000000000000000000000000000000009D
:10036000000000000000000000000000000000008D
:10037000000000000000000000000000000000007D
:10038000000000000000000000000000000000006D
:10039000000000000000000000000000000000005D
:1003A000000000000000000000000000000000004D
:1003B000000000000000000000000000000000003D
:1003C000000000000000000000000000000000002D
:1003D000000000000000000000000000000000001D
:1003E00080804040402010080402010204081020D0
:1003F00040808000000000000000000000000000BD
:1004000000000000000000000000000000000000EC
:1004100000000000000000000000000000000000DC
:1004200000000000000000000000000000000000CC
:1004300000000000000000000000000000000000BC
:1004400000000000000000000000000000000000AC
:10045000003FC1010102020404040402020101017F
:10046000000000000000000000800000800000602C
:100470006000000102040408081010202040808061
:10048000808040404040202020201010101008089C
:100490000808040404040202020201010101000030
:1004A000000000000000000000000000000000004C
:1004B000000000000000000000000000000000003C
:1004C000000000000000000000000000000000002C
:1004D000C0300C030000000000000000000000809D
:1004E0008686404040402122222011111010080829
:1004F00008080404040404083040808000000186D9
:1005000098600000000000000000000000000000F3
:1005100000000000000000000000000000000000DB
:1005200000000000000000000000000000000000CB
:1005300000000000000000000000000000008080BB
:100540008080404040402020202010101010080FD4
:10055000080804040404020408101020204040414C
:10056000422418000000000000000000000000000D
:100570000000000000000000000000000101010078
:10058000000000000000000000000000000000006B
:10059000000000000000000000000000000000005B
:1005A000000000000000000000000000000000004B
:1005B000000000000000000000000000000000003B
:1005C000000000000000000000000000000000002B
:1005D000000000000000000000000000000000001B
:1005E000000000000000000000000000000000000B
:1005F00000000000000000000000000000000000FB
:1006000000000000000000000000000000000000EA
:1006100000000000000000000000000000000000DA
:1006200000000000000000000000000000000000CA
:1006300000000000000000000000000000000000BA
:1006400000000000000000000000000000000000AA
:10065000000000000000000000000000808080809A
:100660004040201008040204081020408080000050
:10067000000000000000000000000000000000007A
:10068000000000000000000000000000000000006A
:10069000000000000000000000000000000000005A
:1006A000000000000000000000000000000000004A
:1006B000000000000000000000000000000000003A
:1006C000000000000000000000000000007E820228
:1006D00002040408080808040402010100000000E4
:1006E0000000000000800000800000606000010148
:1006F00002040408081010202040808080804040C0
:100700004040202020201010101008080808040481
:1007100004040202020201010101000000000000C5
:1007200000000000000000000000000000000000C9
:1007300000000000000000000000000000000000B9
:10074000000000000000000000000000C0300C03AA
:10075000000000000000000000000080868640408D
:10076000404021222220111110100808080804041A
:100770000404040830408080000001869860000076
:100780000000000000000000000000000000000069
:100790000000000000000000000000000000000059
:1007A0000000000000000000000000000000000049
:1007B00000000000000000000000808080804040B9
:1007C00040402020202010101010080F08080404BA
:1007D0000404020408101020204040414224180064
:1007E0000000000000000000000000000000000009
:1007F00000000000000000000101010000000000F6
:1008000000000000000000000000000000000000E8
:1008100000000000000000000000000000000000D8
:1008200000000000000000000000000000000000C8
:1008300000000000000000000000000000000000B8
:1008400000000000000000000000000000000000A8
:100850000000000000000000000000000000000098
:100860000000000000000000000000000000000088
:100870000000000000000000000000000000000078
:100880000000000000000000000000000000000068
:100890000000000000000000000000000000000058
:1008A0000000000000000000000000000000000048
:1008B0000000000000000000000000000000000038
:1008C0000000000000000000000000000000000028
:1008D0000000000000000000808080804040201068
:1008E000080402040810204080800000000000007E
:1008F00000000000000000000000000000000000F8
:1009000000000000000000000000000000000000E7
:1009100000000000000000000000000000000000D7
:1009200000000000000000000000000000000000C7
:1009300000000000000000000000000000000000B7
:1009400000000000000000001C34C4040404080877
:1009500008080804040201010000000000008000F3
:100960000040808040000030300001010202040499
:1009700004080810204080808080404040402020B3
:1009800020201010101008080808040404040202B3
:10099000020201010101000000000000000000004F
:1009A0000000000000000000000000000000000047
:1009B0000000000000000000000000000000000037
:1009C0000000000000000000E01806010000000028
:1009D0000000000000000080838340404040202150
:1009E000212010101010080808080404040404084A
:1009F0003040808000000186986000000000000008
:100A000000000000000000000000000000000000E6
:100A100000000000000000000000000000000000D6
:100A200000000000000000000000000000000000C6
:100A30000000000000008080808040404040202076
:100A4000202010101010080F0808040404040204E9
:100A500008101020204040414224180000000000EF
:100A60000000000000000000000000000000000086
:100A70000000000001010100000000000000000073
:100A80000000000000000000000000000000000066
:100A90000000000000000000000000000000000056
:100AA0000000000000000000000000000000000046
:100AB0000000000000000000000000000000000036
:100AC0000000000000000000000000000000000026
:100AD0000000000000000000000000000000000016
:100AE0000000000000000000000000000000000006
:100AF00000000000000000000000000000000000F6
:100B000000000000000000000000000000000000E5
:100B100000000000000000000000000000000000D5
:100B200000000000000000000000000000000000C5
:100B300000000000000000000000000000000000B5
:100B400000000000000000000000000000000000A5
:100B50000080804040402020202020180402010214
:100B600004081020204040808000000000000000A9
:100B70000000000000000000000000000000000075
:100B80000000000000000000000000000000000065
:100B90000000000000000000000000000000000055
:100BA0000000000000000000000000000000000045
:100BB0000000000000000000000000000000000035
:100BC000000000060D31C10101010202020404020D
:100BD0000201000000000000000080000040808052
:100BE000400000303000000000010204040808103A
:100BF00020408080808040404040202020201010F5
:100C0000101008080808040404040202020201018A
:100C100001010000000000000000000000000000D2
:100C200000000000000000000000000000000000C4
:100C300000000000000000000000000000000000B4
:100C400000000000E01806010000000000000000A5
:100C5000000000808383404040402021212010106C
:100C600010100808080804040404040830408080B8
:100C700000000186986000000000000000000000F5
:100C80000000000000000000000000000000000064
:100C90000000000000000000000000000000000054
:100CA0000000000000000000000000000000000044
:100CB0000000808080804040404020202020101094
:100CC0001010080F0808040404040204081010207F
:100CD00020404041422418000000000000000000B5
:100CE0000000000000000000000000000000000004
:100CF00001010100000000000000000000000000F1
:100D000000000000000000000000000000000000E3
:100D100000000000000000000000000000000000D3
:100D200000000000000000000000000000000000C3
:100D300000000000000000000000000000000000B3
:100D400000000000000000000000000000000000A3
:100D50000000000000000000000000000000000093
:100D60000000000000000000000000000000000083
:100D70000000000000000000000000000000000073
:100D80000000000000000000000000000000000063
:100D90000000000000000000000000000000000053
:100DA0000000000000000000000000000000000043
:100DB0000000000000000000000000000000000033
:100DC0000000000000000000000000000000000023
:100DD0008080804040202010080402040810102069
:100DE0002040408080000000000000000000000063
:100DF00000000000000000000000000000000000F3
:100E000000000000000000000000000000000000E2
:100E100000000000000000000000000000000000D2
:100E200000000000000000000000000000000000C2
:100E300000000000000000000000000000000000B2
:100E4000003FC101010202048444444282010101C5
:100E50000000000000008000004080804000003062
:100E60003000000000010264180412C2CA2488F095
:100E700080804040404020202020101010100808A2
:100E80000808040404040202020201010101000036
:100E90000000000000000000000000000000000052
:100EA0000000000000000000000000000000000042
:100EB0000000000000000000000000000000000032
:100EC000E018060100000C03000218190005FE805E
:100ED000838340404040202121201010101008083A
:100EE00008080404040402020202010101010000D6
:100EF00000000000000000000000000000000000F2
:100F000000000000000000000000000000000000E1
:100F100000000000000000000000000000000000D1
:100F200000000000000000000000000000008080C1
:100F30008080404040402020202010101010080FDA
:100F40000808040404040202020201010101000075
:100F50000000000000000000000000000000000091
:100F60000000000000000000000000000000000081
:100F70000000000000000000000000000000000071
:100F80000000000000000000000000000000000061
:100F90000000000000000000000000000000000051
:100FA0000000000000000000000000000000000041
:100FB0000000000000000000000000000000000031
:100FC0000000000000000000000000000000000021
:100FD0000000000000000000000000000000000011
:100FE0000000000000000000000000000000000001
:100FF00000000000000000000000000000000000F1
:1010000000000000000000000000000000000000E0
:1010100000000000000000000000000000000000D0
:1010200000000000000000000000000000000000C0
:1010300000000000000000000000000000000000B0
:1010400000000000000000000000000080808040E0
:101050004020201008040204081010202040408086
:101060008000000000000000000000000000000000
:101070000000000000000000000000000000000070
:101080000000000000000000000000000000000060
:101090000000000000000000000000000000000050
:1010A0000000000000000000000000000000000040
:1010B000000000000000000000000000003FC1012F
:1010C0000102020404040402020101010000000004
:1010D00000008000004080804000003030000000B0
:1010E00000010264180412C2CA2488F080804040C3
:1010F0004040202020201010101008080808040488
:1011000004040202020201010101000000000000CB
:1011100000000000000000000000000000000000CF
:1011200000000000000000000000000000000000BF
:10113000000000000000000000000000E0180601B0
:101140000000000000000000000000808383404099
:101150004040202121201010101008080808040425
:10116000040402020202010101010000000000006B
:10117000000000000000000000000000000000006F
:10118000000000000000000000000000000000005F
:10119000000000000000000000000000000000004F
:1011A00000000000000000000000808080804040BF
:1011B00040402020202010101010080F08080404C0
:1011C000040402040810102020404041422498C02A
:1011D00088888C9C1C1E0E06000000000000000089
:1011E00000000000000000000000000000000000FF
:1011F00000000000000000000000000000000000EF
:1012000000000000000000000000000000000000DE
:1012100000000000000000000000000000000000CE
:1012200000000000000000000000000000000000BE
:1012300000000000000000000000000000000000AE
:10124000000000000000000000000000000000009E
:10125000000000000000000000000000000000008E
:10126000000000000000000000000000000000007E
:10127000000000000000000000000000000000006E
:10128000000000000000000000000000000000005E
:10129000000000000000000000000000000000004E
:1012A000000000000000000000000000000000003E
:1012B000000000000000000000000000000000002E
:1012C00000000000000000008080804040202010CE
:1012D0000804020408101020204040808000000014
:1012E00000000000000000000000000000000000FE
:1012F00000000000000000000000000000000000EE
:1013000000000000000000000000000000000000DD
:1013100000000000000000000000000000000000CD
:1013200000000000000000000000000000000000BD
:101330000000000000000000003FC10101020204A3
:10134000844444428201010100000000000080004A
:1013500000408080400000303000000000010204A6
:1013600004080810204080808080404040402020B9
:1013700020201010101008080808040404040202B9
:101380000202010101010000000000000000000055
:10139000000000000000000000000000000000004D
:1013A000000000000000000000000000000000003D
:1013B0000000000000000000E018060100000C031F
:1013C000000218190005FE80838340404040202120
:1013D0002120101010100808080804040404040850
:1013E000304080800000018698600000000000000E
:1013F00000000000000000000000000000000000ED
:1014000000000000000000000000000000000000DC
:1014100000000000000000000000000000000000CC
:10142000000000000000808080804040404020207C
:10143000202010101010080F0808040404040202F1
:101440000202010101010000000000000000000094
:10145000000000000000000000060F0F07030361FA
:10146000F0F8FC600101013C78F8F0700000000029
:10147000000000000000000000000000000000006C
:10148000000000000000000000000000000000005C
:10149000000000000000000000000000000000004C
:1014A000000000000000000000000000000000003C
:1014B000000000000000000000000000000000002C
:1014C000000000000000000000000000000000001C
:1014D000000000000000000000000000000000000C
:1014E00000000000000000000000000000000000FC
:1014F00000000000000000000000000000000000EC
:1015000000002020202020202000434150530000D4
:10151000002400250026002A0000002100220023CC
:1015200000290000001E001F0020002B00AE00015B
:101530005827003762280000000100010001000068
:101540005C000001000100010057000000010001E3
:1015500000010056002A5D0100010001002E00007C
:101560000001000100010001000000010001000174
:101570000001000000010001000100010001000164
:101580000001000100010000000100010001000154
:101590000000000100010001000100000001000145
:1015A0000001000100010001000100010001000034
:1015B000000000000000002A2B28000000000000AE
:1015C0000000000000000000000029000000002CC6
:1015D0001E3420212224342627252E362D37382765
:1015E0001E1F202122232425263333362E37381F71
:1015F0000405060708090A0B0C0D0E0F1011121333
:101600001415161718191A1B1C1D2F3130232D35D0
:101610000405060708090A0B0C0D0E0F1011121312
:101620001415161718191A1B1C1D2F3130354C00B4
:1016300000000000000000000000000000000000AA
:10164000000000000000000000000000000000009A
:101650000000007E0F00D4FFFFFFC70000007800ED
:10166000AE00AF00DA0281FFD9F1DB20A4A62EAFD5
:1016700000A0C000A1C800AED580A81FD300408D37
:1016800014200007087F0807003E5B4F5B3E003ECA
:101690006B4F6B3E001C3E7C3E1C00183C7E3C1891
:1016A000001C577D571C001C5E7F5E1C0000183C10
:1016B000180000FFE7C3E7FF00001824180000FF30
:1016C000E7DBE7FF0030483A060E00262979292695
:1016D00000407F05050700407F05253F005A3CE795
:1016E0003C5A007F3E1C1C0800081C1C3E7F001456
:1016F000227F2214005F5F005F5F0006097F017F89
:1017000000006689956A0060606060600094A2FFD6
:10171000A2940008047E04080010207E2010000817
:10172000082A1C0800081C2A0808001E10101010A7
:10173000000C1E0C1E0C0030383E383000060E3EE9
:101740000E060000000000000000005F0000000026
:101750000700070000147F147F1400242A7F2A1238
:101760000023130864620036495620500000080721
:10177000030000001C224100000041221C00002A3E
:101780001C7F1C2A0008083E0808000080703000FA
:101790000008080808080000006060000020100829
:1017A0000402003E5149453E0000427F4000007265
:1017B00049494946002141494D33001814127F1010
:1017C000002745454539003C4A494931004121112E
:1017D000090700364949493600464949291E000093
:1017E00000140000000040340000000008142241F2
:1017F00000141414141400004122140800020159AA
:101800000906003E415D594E007C1211127C007F9A
:1018100049494936003E41414122007F4141413E14
:10182000007F49494941007F09090901003E4141C2
:101830005173007F0808087F0000417F41000020AD
:1018400040413F01007F08142241007F404040405A
:10185000007F021C027F007F0408107F003E414190
:10186000413E007F09090906003E4151215E007F8B
:10187000091929460026494949320003017F01031D
:10188000003F4040403F001F2040201F003F4038A5
:10189000403F0063140814630003047804030061EC
:1018A00059494D4300007F41414100020408102086
:1018B00000004141417F0004020102040040404019
:1018C0004040000003070800002054547840007F87
:1018D0002844443800384444442800384444287F8D
:1018E0000038545454180000087E09020018A4A4BB
:1018F0009C78007F080404780000447D40000020AC
:1019000040403D00007F102844000000417F40001F
:10191000007C04780478007C08040478003844448F
:10192000443800FC182424180018242418FC007CD7
:10193000080404080048545454240004043F442478
:10194000003C4040207C001C2040201C003C4030DB
:10195000403C004428102844004C9090907C004467
:1019600064544C4400000836410000000077000039
:10197000000041360800000201020402003C262358
:10198000263C00000000000000404040F0F8F8FF56
:1019900038FFF8F83FF8F8FF38FFF8F8F04040401B
:1019A00000000000000080C0C0C0800000C0C080F7
:1019B00000000080C0C000C0C0000080C0C00000A7
:1019C000000000C0C0C0C0C000C0C00000000000D7
:1019D0000000000000000000000000000000000007
:1019E00000000000000000000000000000000000F7
:1019F00000000000000000000000000000000000E7
:101A00000000C0F0F8FC3E1E06010000007F4141CE
:101A1000417F007F4141417F000080C0E07E5B4FFD
:101A20005BFEC00000C000DCD7DEDEDED7DC00C01D
:101A300000000000000000000000000000000000A6
:101A4000000000000000000000494949FFFFFFFFBF
:101A5000E0DFBFBF00BFBFDFE0FFFFFFFF49494935
:101A600000000000001F3F6060E0BF1F007F7F0795
:101A70001E381E077F7F007F7F0E1F3B71600000B6
:101A80000000007F7F0C0C0C007E7E007F7E030335
:101A9000007F7E03037E7E03037F7E000F3E703C4B
:101AA000063C703E0F00327B49493F7E007F7E033B
:101AB00003001E3F69696F2600000000000000005F
:101AC0000000030F1F3F3C7870600000007F414121
:101AD000417F007F4141417F00307B7F7830202073
:101AE00030787F3B0003000F7F0F0F0F7F0F000345
:101AF00000000000000000000000000000000000E6
:101B0000000000000000000000010101070F0F7F2E
:101B10000F7F0F0F7E0F0F7F0F7F0F0F0701010148
:101B200000000000000000000000010100000000B3
:101B300000000000000000000000000000000000A5
:101B40000000000000000000000000000000000095
:101B50000000000000000000000000000000000085
:101B60000000000000000000000000000000000075
:101B70000000000000000000000000000000000065
:101B80000000000000000000000000000000000055
:101B90000000000000000000000000000000000045
:101BA0000000000000000000000000000000000035
:101BB0000000000000000000000000000000000025
:101BC0000000001003640075006D00620070006189
:101BD0000064000000160369006D0063006800697E
:101BE00000700077006F006F0064000000040309BC
:101BF0000409025B00030100A0FA090400000103CC
:101C000001010009211101000122400007058103A3
:101C100008000A0904010002030000000921110163
:101C200000012222000705820320000107050303AB
:101C30002000010904020001030000000921110134
:101C400000012232000705840320000A120100026D
:101C5000000000084B4350400100010200010660F3
:101C6000FF0961A1010962150026FF009520750892
:101C700081020963150026FF00952075089102C0B6
:101C800005010980A101850319012AB70015012664
:101C9000B700950175108100C0050C0901A10185EF
:101CA0000419012AA002150126A0029501751081D0
:101CB00000C005010906A101050719E029E7150083
:101CC00025019508750181029501750881010507B7
:101CD000190029FF150026FF0095067508810005EB
:101CE0000819012905950575019102950175039162
:101CF00001C011241FBECFEFDAE0DEBFCDBF04B6B6
:101D000003FE27C080918B0490918C04A0918D04D8
:101D1000B0918E048730904BA740B04BD1F4109215
:101D20008B0410928C0410928D0410928E0414BEB9
:101D300084B7877F84BF0FB6F894A8958091600020
:101D4000886180936000109260000FBEE0E0F8E3CD
:101D5000099511E0A0E0B1E0E2EFFCE602C00590D9
:101D60000D92AA3AB107D9F724E0AAEAB1E001C07E
:101D70001D92AB38B207E1F70E94BF1F0C94773673
:101D80000C9400000E94CA1F8531E8F48091AD01D7
:101D900090E0019665E070E00E94BD358093AD0152
:101DA00024E030E0281B390B4CE752E0249FC001AF
:101DB000259F900D349F900D11246CE772E08E5D8D
:101DC0009E4F0E94D8250E94CA1F853150F00E9464
:101DD000CA1F883230F46CE772E08EE89DE00E9402
:101DE000D8250E94CA1F8832D8F08091AC0190E0BB
:101DF0000196817099278093AC0121E030E0281B87
:101E0000390B4CE752E0249FC001259F900D349F71
:101E1000900D11246CE772E0865F9F4E0C94D825DC
:101E20000895811106C0662311F08BEA09C08CEA7F
:101E300007C0813039F4662311F089EA01C08AEACB
:101E40000E944E1281E00895CF930E94CA1F8823FA
:101E500041F10E9425266091B2017091B3018091F9
:101E6000B4019091B5010E940F2C693C7105810568
:101E7000910560F00E94F42B6093B2017093B3015E
:101E80008093B4019093B5010E94C20E0E94F42B7E
:101E90006093AE017093AF018093B0019093B10154
:101EA0002DC06091AE017091AF018091B001909111
:101EB000B1010E940F2C61367A4E8105910518F010
:101EC0000E9449271BC06091B2017091B3018091BB
:101ED000B4019091B5010E940F2C693C71058105F8
:101EE000910560F00E94F42B6093B2017093B301EE
:101EF0008093B4019093B5010E94C20E60E080E02F
:101F00000E94E9240E94CA1F0E94D92AC82F61E0BA
:101F100080E00E94E924C1FD03C082E095E102C097
:101F20008AE095E160E0CF910C94C62581E00895A8
:101F300081E008950C94980F08950C949C0F1F93C2
:101F4000CF93DF9300D000D01F92CDB7DEB7498387
:101F50005A836B833091B60189819A81311114C003
:101F6000662359F0222349F00E94B215182F682FDA
:101F700089819A810E94591503C00E948515182FE6
:101F800069817A81812F04C00E94B21569817A81AA
:101F90000F900F900F900F900F90DF91CF911F91A6
:101FA0000C94A023FC01262F408151816281738112
:101FB00084810C949F0F81E00895CF93DF93EC010F
:101FC00060E00E94D20FBE01DF91CF910C949D0F73
:101FD000E1E0F0E0DF0102C0AA0FBB1F6A95E2F763
:101FE000BD01DF0102C0AA0FBB1F4A95E2F7AD0198
:101FF000462B01C0EE0F2A95EAF7942F9823491338
:1020000002C08E2B0895E0958E230895242F462F2D
:10201000682F8091C0010E94E80F0C9416150E9451
:102020005B1E0E9463110C948B1E0E9448200C942E
:10203000871E08950E94A8140E9419102FEF84E3B0
:102040009CE0215080409040E1F700C000000C94DB
:10205000512C0F931F93CF93DF938C0161E00E946B
:10206000D20FEC01F8018281882319F0CE010E9481
:10207000F61FB801CE010E94F221882309F444C062
:10208000B801CE010E949A0F8823F1F1B801CE0168
:102090000E9404288823C1F1B801CE010E9456286D
:1020A000882391F1B801CE010E948829882361F12B
:1020B000F8018281882309F1CA35FDE5DF07C1F007
:1020C00050F4C115ECE5DE0781F0CE3DDC45A9F406
:1020D0000E94371B19C0CB358DE5D80761F0CC3590
:1020E000DD4559F40E94BC1908C00E941A100CC0AA
:1020F0000E94C51902C00E94C819C801DF91CF9182
:102100001F910F910C94960F80E0DF91CF911F915A
:102110000F910895DF92EF92FF920F931F93CF9349
:10212000DF93E82FF0E0E155FA4ED490282F269562
:102130002695269530E0F901E15BF94E0491877010
:1021400010E0082E02C0159507950A94E2F7017079
:102150001127F901E15CF94EE490F12C082E02C040
:10216000F594E7940A94E2F791E0E922FF24F9015B
:10217000E15DF94EC491D0E002C0D595C7958A952E
:10218000E2F7C170DD270115110519F081EE0E94FB
:10219000BD11E114F10419F086EE0E94BD118D2DE0
:1021A0000E944E12EF2819F086EE0E940B12012BAE
:1021B00019F081EE0E940B12CD2B51F08CE2DF91D1
:1021C000CF911F910F91FF90EF90DF900C944E12E2
:1021D000DF91CF911F910F91FF90EF90DF900895C5
:1021E000EF92FF920F931F93CF93DF93EC01162F83
:1021F0000AE08881882309F455C0813009F043C082
:102200008981813041F47E0182E0E80EF11C8A81EF
:102210000E944E1209C0823049F47E01E2E0EE0EC7
:10222000F11C8A810E94BD11E7012FC0833041F467
:102230007E01F2E0EF0EF11C8A810E940B12F4CFB6
:10224000843011F0219621C02A81229680E090E00E
:1022500030E0205331092A30310558F4089FA0019D
:10226000099F500D1124C901840F951F21962881C3
:10227000EFCF009751F0EFE9FFE03197F1F700C0A1
:1022800000000197F6CF0E948A102196812F8823A3
:1022900009F4AFCFEFE9FFE03197F1F700C000009C
:1022A0008150F5CFDF91CF911F910F91FF90EF906B
:1022B000089560E00C94F01008950C945C1181E096
:1022C00008950C945F110895CF93C82F0E945D115B
:1022D0008C2F0E946111CF910895CF93DF93CDB7DA
:1022E000DEB72B970FB6F894DEBF0FBECDBF4F837E
:1022F000588769877A878B8761110E94EB199E0145
:102300002F5F3F4F86E0F90111928A95E9F785E04A
:10231000FE013796D90101900D928A95E1F78981E6
:102320009A814C815D81452B31F09F3F31F491E0E2
:102330008F3F19F403C091E001C090E090FF09C005
:1023400049815A816B817C818D819E810E94EB182D
:1023500005C0C9010E94DB0F8111F2CF2B960FB689
:10236000F894DEBF0FBECDBFDF91CF910895FC0181
:10237000808191810E94DF150895CF93882309F40D
:1023800048C0C82F8CEF8C0F813AD0F46C2F80910D
:102390000001909101010E941F2B882349F06C2FAE
:1023A00080910001909101010E94572B0E941D1AFB
:1023B0006C2F80910001909101010E94552B0CC05F
:1023C00080E28C0F883058F4C77081E001C0880F1C
:1023D000CA95EAF70E94CE19CF910C941D1AEBE52D
:1023E000EC0FE33040F4F0E0EE5BFE4F808190E0D4
:1023F000CF910C94E72AC85AC73158F4EC2FF0E07B
:10240000EE0FFF1FEC5EFE4F80819181CF910C9407
:10241000FD2ACF910895882349F1682F8CEF860F0C
:10242000813A38F480910001909101010E94572B6C
:102430000CC080E2860F883050F4677081E001C0E4
:10244000880F6A95EAF70E94D4190C941D1A8BE53F
:10245000860F833020F480E090E00C94E72A685ADD
:10246000673120F480E090E00C94FD2A08951F93DA
:10247000CF93DF93182FEB010E94BD11209741F0FD
:102480008FE99FE00197F1F700C000002197F6CF98
:10249000812FDF91CF911F910C940B12893319F08A
:1024A00060E070E002C060E570E00C9437128823B1
:1024B00021F00E94CE190C941D1A0895882321F052
:1024C0000E94D4190C941D1A0895CF92DF92EF92B6
:1024D000FF920F931F93CF93DF937C01062FC72F9B
:1024E000FC01D281158112951F700E94A3198823C7
:1024F00099F0DD2389F08C2F807F803421F080E2F9
:10250000800F883048F082E00E946D1A0E94A31963
:1025100091E0D82ED92601C0D12CCC2EC2948FE0C8
:10252000C8228C2D90E0FC01EA5AFF4F0C94F03544
:102530008C2F807FCF70882311F0C295C07FDD2360
:1025400099F0CC2309F455C180E2800F883010F057
:10255000011104C08C2F0E94CE1903C08C2F0E9441
:10256000DE190E941D1A45C1802F0E940B12CC2338
:1025700009F464C180E2800F883010F0011104C0BA
:102580008C2F0E94D41903C08C2F0E94E4190E9442
:102590001D1A54C18C2F807FCF70803211F0C295EC
:1025A000C07F002319F00130C9F022C0DD2371F093
:1025B000112341F0113031F40E94FE198C2B0E943E
:1025C000061A3CC10E94FE198C2B1DC0112319F064
:1025D000113009F433C10E94131A25C0DD2321F004
:1025E000133008F02BC10EC0123008F027C11BC0F9
:1025F000DD2361F0112331F0F701858180FFF9C0FF
:102600008F7085838C2F0E94571218C1112359F0A7
:10261000093309F0FFC0FFEF27EE83E0F1502040BF
:102620008040E1F7F5C08C2F0E945E1207C18C2F0D
:1026300086958695837019F0813061F0FFC0DD23A7
:1026400021F0802F9C2F937002C080E090E00E94C8
:10265000E72AFCC0DD2321F0802F9C2F937002C05D
:1026600080E090E00E94FD2AF1C08C2F837079F504
:10267000D111E8C0402F429546954770440F440F52
:10268000202F2F70042E01C0220F0A94EAF704FFB6
:1026900008C08FE090E001C0880F4A95EAF7809566
:1026A00001C080E0C695C695C370822BC23049F048
:1026B00058F4C13019F00E940A15C4C00E940515D3
:1026C000C1C00E940F15BEC00E940315BBC0DD2310
:1026D00019F08C2F817001C08695882309F4B2C04F
:1026E000402F429546954770440F440F202F2F707E
:1026F000042E01C0220F0A94EAF704FF08C08FE0FD
:1027000090E001C0880F4A95EAF7809501C080E00B
:10271000C695C695C370822BC23049F058F4C130BB
:1027200019F00E944E158EC00E9449158BC00E9460
:10273000531588C00E94161585C0CF70DD2339F06F
:102740008C2F0E942715802F0E9457127BC0802F4C
:102750000E945E128C2F0E94321574C0023F01F15C
:1027600028F4003F41F0013FA1F03FC0033FF9F0E2
:10277000043F39F13AC0DD2341F0123008F05EC069
:102780008C2F8F710E943E1559C0133008F056C02F
:10279000F7CFDD2339F08C2F8F710E9427154EC0A3
:1027A000DD23C9F38C2F8F710E94321547C0DD23C2
:1027B00029F08C2F8F710E941F1540C00E941C159C
:1027C0003DC0DD2349F0CF718C2F0E94271563E0B7
:1027D0008C2F0E94521A32C081E00E946D1A123072
:1027E00068F182E00E946D1A29C0DD2331F01123C7
:1027F00091F2802F0E94BD1121C0112399F209335B
:1028000049F49FEFE7EEF3E09150E040F040E1F74C
:1028100000C00000802F0E940B1210C04C2F4F7080
:10282000602FC7010E94441C0E940D160FC04C2F40
:102830004F70602FC7010E94471C08C088EF8C0DA5
:10284000843020F40E94CD2A0E946411DD20C9F05A
:102850000E949F1980FD15C0F70112820E949919EC
:102860000E942715C7010E9462140E949919DF91E6
:10287000CF911F910F91FF90EF90DF90CF900C942C
:102880003215DF91CF911F910F91FF90EF90DF9064
:10289000CF9008950F931F93CF93DF93EC0168813E
:1028A00079818A810E94EA158C010E9458150E9444
:1028B000F714B801CE010E946512DF91CF911F91EC
:1028C0000F910895CF93DF93EC01988189812B813B
:1028D0003C81232B31F08F3F31F481E09F3F19F48D
:1028E00003C081E001C080E080FD19C0CE010E94DC
:1028F000291081110CC00E94A319882381F08A81BC
:10290000882369F082E0DF91CF910C946D1ACE019B
:102910000E944A14CE01DF91CF910C94DD0FDF911C
:10292000CF91089580E090E00E94E72A80E090E057
:102930000E94FD2A0E94EB190E94FB190C941D1A9B
:1029400080910001909101010E94592B0C949214E6
:102950000E94DB190C94A014E92FE295EF704E2F22
:1029600050E0FA013297EE30F105B0F4EA59FF4F2A
:102970000C94F035803F91F018F4883E68F40EC056
:10298000843F51F40BC0883E48F0813F29F406C0D3
:1029900093FB882780F9089580E0089581E00895E9
:1029A000FC01808191810E94DF150E94AC14089582
:1029B000CF93DF9300D000D01F92CDB7DEB70F903A
:1029C0000F900F900F900F90DF91CF910895CF93BC
:1029D000DF9300D000D000D0CDB7DEB726960FB67B
:1029E000F894DEBF0FBECDBFDF91CF91089508955B
:1029F00008950C94F8140C94F9140E94FB1480931D
:102A0000C1010C9492140C94FD149091C101892B76
:102A10000C94FD149091C10189230C94FD149091A4
:102A2000C10189270C94FD140C94F8140E9414150C
:102A30008093C0010C94921480E00C94161591E0E0
:102A400001C0990F8A95EAF7892F0C94161521E099
:102A500030E001C0220F8A95EAF78091C001822BF5
:102A60000C94161521E030E001C0220F8A95EAF798
:102A700020958091C00182230C94161521E030E04E
:102A800001C0220F8A95EAF78091C00182270C9439
:102A900016159091C001892B0C9416159091C001C8
:102AA00089230C9416159091C00189270C94161552
:102AB000089524E0929F900D1124890FE82FE69548
:102AC000E695E695877051E001C0550F8A95EAF7C3
:102AD00083E0E89FF0011124E954FE4F20E030E04C
:102AE00070E04081CB01022E02C0969587950A9432
:102AF000E2F78170819584278523842781932F5F56
:102B00003F4F2330310569F7089524E0929F900DDF
:102B10001124890F682F669566956695982F977092
:102B200083E0689FB001112440E050E080E0FB01A9
:102B3000E40FF51FE954FE4F208130E0092E02C05A
:102B4000369527950A94E2F721703327042E01C0A9
:102B5000220F0A94EAF7822B4F5F5F4F43305105F3
:102B600031F70895CF92DF92FF920F931F93CF9387
:102B7000DF936C010091C0018091C101082BC7E077
:102B8000D0E010E0C8010C2E02C0959587950A94FC
:102B9000E2F780FD04C02197A8F7F12C07C0FC2EB6
:102BA000B6018C2F0E94651D0197A9F38F2DDF912F
:102BB000CF911F910F91FF90DF90CF900895CF9309
:102BC000DF93EC010E94B215BE010E94651DDF91EA
:102BD000CF9108951F93CF93DF93EB019091B601AE
:102BE000992321F0CB010E94DF1513C0882349F0FF
:102BF000CB010E94B215182F682FCE010E945915E3
:102C000004C0CB010E948515182FBE01812F0E94A0
:102C1000651DDF91CF911F910895EF92FF920F9361
:102C20001F93CF93DF938C01892B09F46CC0F12C97
:102C3000EE24E394E8012196F8018491843740F46E
:102C4000843008F051C0813081F0823019F15BC0CE
:102C5000853709F444C0A8F19CE7980F903708F035
:102C600052C08F770E940B1241C00E5F1F4FFE01B2
:102C7000849190E2980F983050F48770FE2D01C037
:102C8000FF0F8A95EAF78F2F0E94EE1914C00E9459
:102C9000BD112DC00E5F1F4FFE01849190E2980F71
:102CA000983060F48770FE2D01C0FF0F8A95EAF717
:102CB0008F2F0E94F4190E941D1A19C00E940B1236
:102CC00016C00E5F1F4FFE01C491CC2381F08FE927
:102CD0009FE00197F1F700C00000C150F6CF0E5FF2
:102CE0001F4FFE01F49003C00E94BD118E018F2D75
:102CF000882309F49FCFEFE9FFE03197F1F700C097
:102D000000008150F5CFDF91CF911F910F91FF907F
:102D1000EF9008951F93CF93DF93C091C20116E007
:102D20008091C301C81799F0D0E01C9FF0011D9F4E
:102D3000F00D1124EC53FE4F40815181628173816B
:102D4000848195810E94E7142196C770E9CFDF91B5
:102D5000CF911F9108954091F4015091F501609138
:102D6000F6017091F7018091F8019091F9010C94AE
:102D7000E7140F931F93CF93DF938091F90182950E
:102D80008F7009F05DC08091F601882309F458C066
:102D90008091C2011091C3016091F4017091F5011D
:102DA000C091F701D091F80191E06F3F09F090E0F8
:102DB000292F06E0811709F443C0209721F07F3FB7
:102DC00021F030E003C031E001C0322F90E030FD4F
:102DD00034C0089FF001099FF00D1124DF01AC53AE
:102DE000BE4F11963C911197371327C03C91361373
:102DF00024C012963C91129731111FC013964D9129
:102E00005C9114974C1B5D0B483C5105B0F48091CC
:102E1000F9018F7080618093F901E753FE4F808143
:102E20008F708061808384EF91E00E946214DF9153
:102E3000CF911F910F910C948A1601968770BACF8B
:102E4000DF91CF911F910F9108959F92AF92BF9202
:102E5000CF92DF92EF92FF920F931F93CF93DF9366
:102E6000CDB7DEB761970FB6F894DEBF0FBECDBF0A
:102E70008C0185E0F801DE011D9601900D928A9586
:102E8000E1F7F801E2809091F4016091F501209161
:102E9000F7013091F8012115310531F06F3F31F420
:102EA00081E09F3F19F403C081E001C080E0F82F6A
:102EB000F1709F2E80FD3FC1F80140815181A380B8
:102EC000B48084EFC82E81E0D82EF090F601F50191
:102ED000E21BF30BFF2009F4D9C08091F901E83C13
:102EE000F10508F095C0282F207F09F052C0561335
:102EF00013C0491311C0FE2CE1100EC08F70806109
:102F00008093F9010E94AB16C6010E946214809161
:102F1000F901F80185834CC1AB2831F05F3F31F4F2
:102F200081E04F3F19F403C081E001C080E080FDE3
:102F300003C081E08E2502C080E090E0F82FF170A0
:102F4000FF2E80FF1CC08091C2012091C30136E09A
:102F5000821709F40BC190E0389FF001399FF00D02
:102F60001124EC53FE4F6181561306C06081461355
:102F700003C06281E61203C001968770E9CFFE2C80
:102F8000EE2009F415C18091F90181608093F90167
:102F900054C0561306C0491304C0E11002C0F80122
:102FA00099C0C8010E94D014882361F1EE2051F12C
:102FB0002091F901822F82958F7090E0029774F032
:102FC0008091F4019091F50198878F831986BB86D3
:102FD000AA862C87CE0107960E94621486E0F8012B
:102FE000A4EFB1E001900D928A95E1F70E94B91625
:102FF0000E94AB160AC0561711F1C8010E94D014E6
:1030000081112CC0C8010E946214FF24F394D0C027
:10301000282F207F81F77A2DB98AA88A6E2D898979
:103020000E94D81484EF91E00E94621486E0F601B9
:1030300011928A95E9F70E94AB16F12CB9C0491399
:10304000DCCFE110DACFF8018583C8010E94621459
:1030500086E0F60111928A95E9F7AAC0EE2091F276
:103060002091F901822F82958F7090E002970CF4E5
:10307000B5CF8091F4019091F5019A8389831B82E9
:10308000BD82AC822E83CE010196A6CFE83CF1052D
:1030900008F044C0FE2CEE2009F4B4CF561330C023
:1030A00049132EC02091F90120FD21C0822F829565
:1030B0008F70482F50E041155105C9F0F801258364
:1030C0004F30510541F08F5F982F9295907F822F5E
:1030D0008F70892B8583C8010E94621486E0F801F5
:1030E000A4EFB1E001900D928A95E1F73CC086E033
:1030F000F801A4EFB1E001900D928A95E1F758C074
:10310000C8010E94D014811169CF8091F9018160BA
:103110008093F901C8010E9462144AC07A2DB98ACD
:10312000A88A6E2D89890E94D81486E0F601119232
:103130008A95E9F718C0EE2009F464CFC8010E940F
:10314000D014F82E882309F45DCF86E0F801A4EFAF
:10315000B1E001900D928A95E1F784EF91E00E9431
:10316000B7110E94B9160E94AB1622C04D875E8728
:103170008D859E850E94DF15292F22952F70223084
:1031800028F49F7039F0811105C00BC0243028F459
:103190009F7049F4805E883020F0C8010E9462145C
:1031A0009F2CF92C05C0F8019581907F99F7F9CFF4
:1031B0008F2D61960FB6F894DEBF0FBECDBFDF91A5
:1031C000CF911F910F91FF90EF90DF90CF90BF9024
:1031D000AF909F9008951F93CF93DF93CDB7DEB745
:1031E0002C970FB6F894DEBF0FBECDBF4F83588724
:1031F00069877A878B879C87CE0107960E9425175F
:103200008823D1F09F8188852A853B85232B31F047
:103210008F3F31F481E09F3F19F403C081E001C08A
:1032200080E080FD47C04F81588569857A858B8510
:103230009C850E94E7143EC086E0FE013796DE01C1
:10324000119601900D928A95E1F7FF81E8856A85D4
:103250007B856115710531F0EF3F31F481E0FF3F6F
:1032600019F403C081E001C080E080FD23C02091FB
:10327000C30130E0C9010196877099274091C201CE
:1032800050E084179507F1F1F983EA837D836C831D
:1032900096E0929FD001939FB00D1124AC53BE4F86
:1032A000FE01319601900D929A95E1F78093C3014A
:1032B0000E948A1616E08091C2019091C30189177D
:1032C00071F1189FC00111248C539E4F0E94251745
:1032D000882329F1E091C2011E9FF0011124EC53D3
:1032E000FE4F4081518162817381848195810E946A
:1032F000E7148091C20190E001968770992780932E
:10330000C201D9CF0E94A8141092C3011092C20129
:10331000E4EFF1E086E0DF011D928A95E9F72C9653
:103320000FB6F894DEBF0FBECDBFDF91CF911F91D6
:1033300008958091FA0185958595859508958091E8
:10334000FA01877008959091FA01977081E009F46D
:1033500080E0089590916B0292FB222720F92817B4
:1033600051F080FB92F990936B0280916A029091E8
:103370006B020C94B41A089580916B0282FB88272B
:1033800080F991E089270C94AA1981E00C94AA197C
:1033900080E00C94AA19809106020895909106028B
:1033A000892B8093060208958095909106028923C7
:1033B00080930602089510920602089590910502E6
:1033C000892B8093050208958095909105028923A9
:1033D00080930502089510920502089590910402C9
:1033E000892B80930402089580959091040289238B
:1033F0008093040208951092040208958091FB01C5
:10340000089508950C94011A0C94021A90916B027D
:1034100092FD08C09091FB01981721F08093FB0169
:103420000C94041A08958091FB01882329F01092CE
:10343000FB0180E00C94041A0895E0910001F091E2
:103440000101809106028083E0910001F091010169
:10345000908180910502892B8083E0910001F09199
:103460000101908180910402892B80838091FB016E
:10347000882381F0E0910001F09101019081892B76
:10348000808380910001909101010E94132B811192
:103490000E94131A80910001909101010C94DC2A82
:1034A0000C94011A90916B0292FD10C098E0899FD4
:1034B00090011124262B2093FA010E942715809158
:1034C000FA018595859585950C94501A0C942715CD
:1034D0001092FA0180E00C94501A2091FA01809524
:1034E00082238093FA01982F977041F430E0482F9F
:1034F000082E000C550B2417350721F490916B0210
:1035000092FF07C08595859585950E9432150C948C
:10351000681A08956FEF7FEF80E090E00C946136B9
:1035200080E090E00E943D36893E9E4F11F40C945D
:10353000952180E0089582E090E00C94353683E098
:1035400090E00C943536CF9384E090E00E943536BD
:10355000C82F82E290E00E9435362C2F30E0A9017E
:10356000582BCA01CF910895CF93C92F682F84E0BB
:1035700090E00E9443366C2F82E290E0CF910C9451
:103580004336AB01BC018FE090E00C945536AB01A3
:10359000BC0183E190E00C94553660E070E0CB0113
:1035A0000C94C71A60E070E0CB010E94C11A0C9421
:1035B000CD1A69EE7EEF80E090E00E94613660E017
:1035C00082E090E00E94433660E083E090E00E9459
:1035D00043361092C10160E084E090E00E944336DF
:1035E00060E082E290E00E94433660E085E090E097
:1035F0000E94433660E086E090E00E9443366FEF21
:1036000087E090E00E94433640E050E0BA0188E055
:1036100090E00E94553660E08DE090E00E944336D5
:1036200040E050E0BA0188E190E00E94553660E049
:1036300087E190E00E94433640E050E0BA018CE11F
:1036400090E00E94553660E070E080E290E00E94D9
:10365000613640E050E0BA0188E190E00E945536C2
:1036600080E00E94AE210E94DA210C94D21A0C94C0
:10367000D91A682F8EE090E00C9443360E94F42B08
:1036800060931402709315028093160290931702B0
:1036900060931002709311028093120290931302B0
:1036A00008950E94F42B6093140270931502809386
:1036B00016029093170260930C0270930D02809390
:1036C0000E0290930F02089585B7806885BF85B775
:1036D000806885BF089581E008950C946B1B089560
:1036E0000C946F1B0C946F1B0C94721B0C946F1B2F
:1036F0000C94761B0C946F1B0E94641B81E49EE16A
:103700000E94622C0E947A1B0C94781B0E94701BF2
:103710000C946F1B0E94DF2B0E94E9210E942E1F38
:1037200080E00E94A1240E948C200C94741B8F9234
:103730009F92AF92BF92CF92DF92EF92FF920F9340
:103740001F93CF93DF93CDB7DEB72A970FB6F894C8
:10375000DEBF0FBECDBF0E94461F982E81110E9472
:103760003E1B88E0A82E82E0B82E00E010E0802EFC
:10377000802F0E94751ED82EF501C1905F01C826CA
:10378000B1F40F5F1F4F0430110589F78FEF898364
:103790008A831B820E94E82B8160782F9D838C8313
:1037A00049815A816B818D810E946D112FC080915A
:1037B000180281FD0E947B1EE12CFF24F3948C2DC6
:1037C0008F21F1F00E946D1B882399F0EE828F8289
:1037D000DF2081E009F480E088870E94E82B816087
:1037E000782F9A8789874E815F8168858A850E94B4
:1037F0006D11F801E85FFD4F8081F826F08206C068
:10380000E394FF0CF5E0EF12DACFBBCF0E94F0207B
:10381000182F81110E94511B0E946327911001C033
:1038200011110E9425260E94CD2A90910702891726
:10383000C1F00E94CD2A809307022A960FB6F89411
:10384000DEBF0FBECDBFDF91CF911F910F91FF90D3
:10385000EF90DF90CF90BF90AF909F908F900C949F
:1038600064112A960FB6F894DEBF0FBECDBFDF916C
:10387000CF911F910F91FF90EF90DF90CF90BF906D
:10388000AF909F908F90089580E090E00895089504
:10389000880F991FFC01E15AF94E85919491089582
:1038A000CF93DF930E946A1DEC01811520E59207FA
:1038B00008F041C0811540E4940708F0CBC0803E79
:1038C000910520F5803C910508F0B8C0883A910533
:1038D00070F4853A910508F0A8C08130910509F48B
:1038E000A1C008F4EBC0049708F0EBC0E7C08F3B21
:1038F000910508F0E3C0885AC82FD0E0CC0FDD1F37
:10390000CB5BDE4F888199819464DCC0811550E2E5
:10391000950750F4C11581E0D80708F0D2C0C83E21
:10392000D10508F4CEC0CAC0811520E3920708F083
:103930008AC09F7085C0811545E5940708F046C090
:10394000811554E5950708F09DC0C11582E5D8079B
:1039500018F5C11521E5D20708F07FC0CE01F4E0CB
:1039600096958795FA95E1F7282F23703C2F3370B1
:1039700081E090E002C0880F991F3A95E2F79C68B9
:10398000922B2C2F2F702695269540E2249F900194
:103990001124822B932B96C09E01237033279C2FDA
:1039A00096959695C115D34508F05CC041E050E06E
:1039B00002C0440F551F2A95E2F780E2989F9001BC
:1039C0001124CA01822B932B9C687CC0811559E578
:1039D000950798F4C11588E5D80708F058C0C115B7
:1039E00026E5D20708F06AC08C2F0E94FE1D8F7159
:1039F00090E0982F8827906265C081154AE594076A
:103A000008F44AC090568115904208F057C08D2F97
:103A10008F710E94FE1D9E01332730628F71A901B4
:103A2000582B4AC081E090E04DC0855AC82FD0E0A5
:103A3000CD58DE4F888190E0906444C0805C91094D
:103A40000E94481C3FC09927D3FF02C0986C3AC01F
:103A5000906C38C09F70906A35C09C2F8827816F0A
:103A6000906A30C041E050E002C0440F551F2A95D3
:103A7000E2F780E2989F90011124CA01822B932BD8
:103A80009A6820C0982F8827846F906A1BC09C2F4B
:103A90008827806F906A16C08F700E94FE1D9E015D
:103AA00094E0369527959A95E1F72F7030E0322F04
:103AB00022273069A901482BCA0104C080E090E0A8
:103AC00001C0CE01DF91CF9108950E94A0230E94F2
:103AD000501C08958238910569F1B0F48133910545
:103AE00009F46DC048F48932910509F463C08A3243
:103AF000910509F469C008958533910509F455C00D
:103B000089339105B9F00895833E910569F138F440
:103B1000803E9105B1F0823E910509F10895863EFF
:103B20009105A9F1873E9105B9F1843E910509F00F
:103B300064C023C020916A0220FD4FC021FD4DC00A
:103B4000089580916A0280FD44C080916B0280FFDD
:103B500044C080916A0284FD42C083EE4DC08091D2
:103B60006A0282FF38C0F5CF80916A0282FD33C0BD
:103B700080916B0280FD31C0ECCF80916B0281FFA0
:103B800032C080916A0284FD2AC087EE35C08091E0
:103B90006A0283FF26C0F5CF80916A0283FD21C0AF
:103BA00080916B0281FD1FC0ECCF80916A0285FD80
:103BB0001CC01DC080916A0285FD19C016C080918D
:103BC0006A0286FD16C017C080916A0286FD13C086
:103BD00010C089E311C082EE0FC080EE0DC080E0FE
:103BE0000BC086EE09C084EE07C089E205C085E3FC
:103BF00003C08AE201C081E390E0089590916A02D7
:103C000092FF0DC0282F2871283019F4877F846017
:103C100006C0282F2471243011F48B7F886093FF15
:103C20000DC0282F2871283119F4877E846106C0C1
:103C3000282F2471243111F48B7E886120916B022E
:103C400020FF0DC0382F3871383019F4877F81601C
:103C500006C0382F3171313011F48E7F886021FF1A
:103C60000DC0282F2871283119F4877E816106C084
:103C7000282F2171213111F48E7E886194FD877E79
:103C8000089580E008950C948A1A0E94461F8FE3DD
:103C90009CE90197F1F700C000000E94461F80E0F8
:103CA0000E94751E80FF04C00E94431E0C94512C7C
:103CB00008950C94451E0E94901A811102C00E9422
:103CC000371B0E949B1A809318020E94A31A90939C
:103CD0006B0280936A020E94591E0E949F1A0E94E2
:103CE00003158091C0010C941415E82FF0E0E05901
:103CF000FD4F80810895089580EA8A95F1F708952F
:103D000000C008950C947C1E08950C94841E0C949D
:103D1000851E0C94841E0C94891EF894E82FE2955D
:103D2000EF70F0E031A1282F2F7081E090E001C00A
:103D3000880F2A95EAF7982F9095932391A392A143
:103D4000892B82A3789408950F931F93CF93DF93C9
:103D5000CBE7D1E089918F3F11F00E948D1E81E069
:103D6000CF37D807B9F7C6E7D1E00BE711E0899163
:103D70008F3F11F00E948D1E0C171D07C1F7DF91B8
:103D8000CF911F910F910895CF92DF92EF92FF9202
:103D90000F931F93CF93DF938C01C62FD0E0CE01FA
:103DA00085589E4F7C01FC0190819F3F09F44DC0D6
:103DB000D62EF894E92FE295EF70F0E081A19F7084
:103DC00021E030E001C0220F9A95EAF7822B81A30F
:103DD00082A12095282322A378940E94801EE6E7E2
:103DE000F1E020E030E0C12C51E041914F3FB1F0D3
:103DF000A42FA295AF70B0E090968C9190E04F7098
:103E000002C0959587954A95E2F780FD07C0852FFA
:103E1000022E01C0880F0A94EAF701C080E0C82A88
:103E20002F5F3F4F2530310501F7F70180818F3F2C
:103E300011F00E948D1E61E0C11001C060E08D2D67
:103E40000E94821EC00FD11FC882DF91CF911F91A7
:103E50000F91FF90EF90DF90CF9008950E94A41EE5
:103E6000ACE6B2E01C92E0E7F2E0108211961C9200
:103E70001197118212961C921297128213961C921D
:103E8000138284E00E94881F0C940F101F93CF931D
:103E9000DF9300D000D0CDB7DEB719821A821B8223
:103EA0001C8210E0612FCE0101960E94C41E1F5F8C
:103EB0001430C1F744E050E0BE016F5F7F4F8CE6E5
:103EC00092E00E94283611E0009709F410E0892B57
:103ED00061F089819A81AB81BC8180936C0290935F
:103EE0006D02A0936E02B0936F02212F44E060E751
:103EF00072E08CE692E00E94891F0E941510812FCB
:103F00000F900F900F900F90DF91CF911F91089518
:103F10000895FF920F931F93CF93DF938C01F62E9A
:103F2000D72FC42F222349F081E080931B020E94E7
:103F3000E82B90931A028093190280911B02882328
:103F4000C1F08091190290911A020E94002C0597ED
:103F500080F0EF2DFD2FD8014C2F50E0CD01801BBC
:103F6000910B841795071CF48D918193F7CF1092D4
:103F70001B02DF91CF911F910F91FF9008950E9436
:103F8000602B0E94D82D0E94F12D0E94032E0E94CA
:103F9000861BFBCF80911E0208959C01305621158F
:103FA00040E2340748F0305E211540E1340720F04C
:103FB000315C21153F4110F4992706C08F3F9105D0
:103FC00019F010F080E090E09C0124503109243277
:103FD000310540F02752310981E02E30310518F0CB
:103FE00080E0089581E008950C94CD1FCF92DF9278
:103FF000EF92FF92CF93DF930E94F41F882309F47E
:1040000040C080911C0290911D020097A1F10E9476
:10401000002C9C0140E050E060EE7EE280E090E009
:104020000E94D13560911E022F3F310519F010F02A
:104030002FEF30E0C62FD0E02C1B3D0BB90180E004
:1040400090E00E94613427EA39E747E45DE30E948B
:1040500030350E941B346B017C01BE01DD0F880BE3
:10406000990B0E946334A70196010E94AF330E940E
:10407000323460931E020E94E82B90931D028093BD
:104080001C02DF91CF91FF90EF90DF90CF900895C9
:10409000CF92DF92EF92FF92CF93DF9380911C0239
:1040A00090911D020E94002C893E934060F1609126
:1040B0001E02C62FD0E0662777276C1B7D0B072ECC
:1040C000000C880B990B0E94633427EA39E747E418
:1040D0005DE30E9430356B017C01BE01DD0F880B72
:1040E000990B0E9463349B01AC01C701B6010E9489
:1040F000AF330E94323460931E020E94E82B9093EB
:104100001D0280931C02DF91CF91FF90EF90DF9012
:10411000CF9008950C94110FFF920F931F93CF939C
:10412000DF93C3E2D2E041E951E02FE831E061E002
:1041300070E0F2E0C532DF0709F44CC0FA010191EA
:10414000AF01A02FA295AF70B0E09196EC9191973E
:104150000F70CB01002E01C0880F0A94EAF7982F48
:1041600090959E2391969C93919792969C9192976D
:10417000892B92968C939297F90111919F01E12FCF
:10418000E295EF70F0E0F1A01F70CB01012E01C0AD
:10419000880F0A94EAF7982F90959F2191A392A1F6
:1041A000892B82A390968C9190E002C0959587957B
:1041B0000A95E2F78170E0A1F0E002C0F595E7957D
:1041C0001A95E2F7E0FD02C090E001C092E0892B71
:1041D0008993AFCFDF91CF911F910F91FF900895F9
:1041E0002F923F924F925F926F927F928F929F9207
:1041F000AF92BF92CF92DF92EF92FF920F931F93F5
:10420000CF93DF9383E2682E82E0782E91E9E92E46
:1042100091E0F92E0FE811E021E2822E22E0922EA9
:10422000CFE1D2E063015301312C212C34E0432E45
:10423000512CD501ED915D014E2F440F440FF60135
:1042400041936F01D7012D917D01E22FE295EF702F
:10425000F0E080A190E02F7002C0959587952A9597
:10426000E2F781709927F80151918F01E52FE295CE
:10427000EF70F0E020A130E05F7002C03595279527
:104280005A95E2F7F901E170FF2720FF02C0E2E052
:10429000F0E0E82BF92BE42BD301ED933D01EF7017
:1042A000F0E0E158FE4F9081F4018081890F808316
:1042B00084304CF088818F5F888360E0832D0E947A
:1042C0008A2021E001C020E0D4018C918D3F44F48C
:1042D00088818150888361E0832D0E948A2021E0BB
:1042E000F4018081082E000C990BB2010E94BD35AB
:1042F000D4018D934D01222A33942196B2E03B12D2
:1043000098CF822DDF91CF911F910F91FF90EF9069
:10431000DF90CF90BF90AF909F908F907F906F90E5
:104320005F904F903F902F90089583E290E00E941D
:104330003536813281F484E290E00E943536813155
:1043400051F485E290E00E94353691E0863009F024
:1043500090E0892F01C080E081700895CF93C82F2D
:10436000811102C06FEF01C061E283E290E00E9420
:104370004336C11102C06FEF01C061E184E290E0F9
:104380000E944336C11102C06FEF01C066E085E2B2
:1043900090E0CF910C944336089586E290E00E941D
:1043A0003536682F70E080E090E0089586E290E076
:1043B0000C94433680E00E94AE2160E070E0CB01B7
:1043C0000E94D6210E941D230E94FA2381E00C94B2
:1043D000AE210E94CC210E949521811102C00C9433
:1043E000DA210895CF93FB01C281CC23E9F09C012F
:1043F00022513F452031310520F482510E940A2488
:104400000CC08031FFE59F0751F481E00E94271521
:1044100043E062E081E00E940610C0E018C08131F4
:104420009F45A9F482E0F2CF8031EFE59E0711F4B9
:1044300081E004C081319F4549F482E00E94321539
:1044400043E062E081E00E94061001C0C1E08C2FD1
:10445000CF9108952FEFFC0120830895EF92FF92F2
:104460000F931F93CF93DF93EC01062FE8818E2FDC
:1044700090E0FC013197E331F10508F091C0EC5870
:10448000FF4F0C94F035198289E04DC0898182304C
:1044900039F0833061F0813029F50E94F42B02C09D
:1044A0000E94CD219A838B837C836D837BC07E01A8
:1044B00082E0E80EF11C10E0812F0E94751EF701CA
:1044C00081937F011F5F1430B9F76CC089818230FE
:1044D00049F46A817B818C819D810E94F6350E941E
:1044E000D62160C0602FCE010E942A225BC04B8182
:1044F0006A8189810E94EF229C838D8353C02C8125
:104500003D813227232732274B816A8189810E948E
:10451000082348C00E941D2345C00E94AD2324C02B
:104520000E94AF2399838A833DC06B8170E08981AB
:104530009A81AE014C5F5F4F9827892798270E9488
:10454000B22330C06B8170E089819A81AE014C5FEB
:104550005F4F9827892798270E94D72323C00E945E
:10456000FA2320C00E94DC2289831CC06B8170E08A
:1045700089819A81AE014C5F5F4F982789279827E0
:104580000E945C230FC06B8170E089819A81AE012B
:104590004C5F5F4F9827892798270E947F2302C08E
:1045A0008FEF8883602FCE01DF91CF911F910F9104
:1045B000FF90EF900C94C92C84E0089550E0440FD4
:1045C000551F2AE0629F400D511D11249A0168E297
:1045D000869F200D311D1124C901879608950F93E0
:1045E0001F93CF93DF930E94DE228C010E94353609
:1045F000C82FD0E0DC2FCC27C80101960E943536A9
:104600009E01282BC901DF91CF911F910F91089531
:104610000F931F93CF93DF93122F032F0E94DE225D
:10462000EC01602F0E944336612FCE010196DF918D
:10463000CF911F910F910C944336AF92BF92CF92BE
:10464000DF92EF92FF920F931F93CF93DF93A12CF2
:10465000E12CF12CB12C00E010E0C0E0D0E06701CB
:10466000C00ED11EFE01EE0FFF1FEC0DFD1DE15F20
:10467000FA4E259134914C2F6B2D8A2D0E940823E0
:104680002196C530D10571F7065F1F4FB39484E0C2
:10469000B812E3CF88E2E80EF11CA39484E0A812DC
:1046A000D9CFDF91CF911F910F91FF90EF90DF90C5
:1046B000CF90BF90AF900895EF92FF920F931F930A
:1046C000CF93DF93EA017A01E60EF71E8C01C80151
:1046D0008796CE15DF0561F0003A110520F40E949F
:1046E0003536888301C0188221960F5F1F4FEFCFA8
:1046F000DF91CF911F910F91FF90EF900895EF926E
:10470000FF920F931F93CF93DF93EA017A01E60E96
:10471000F71E8C01C8018796CE15DF0551F0003ACF
:10472000110518F468810E94433621960F5F1F4FD0
:10473000F1CFDF91CF911F910F91FF90EF900895EE
:10474000462F843038F4743028F4653018F4672F1D
:104750000C94EF2280E090E0089580E1089589E3D1
:1047600093E00895EF92FF920F931F93CF93DF93FF
:10477000EA017A01E60EF71E8C01C80189539F4FAA
:10478000CE15DF0569F0093323E0120720F40E94FB
:104790003536888301C0188221960F5F1F4FEDCFF9
:1047A000DF91CF911F910F91FF90EF900895EF92BD
:1047B000FF920F931F93CF93DF93EA017A01E60EE6
:1047C000F71E8C01C80189539F4FCE15DF0559F0A4
:1047D000093323E0120718F468810E9443362196BA
:1047E0000F5F1F4FEFCFDF91CF911F910F91FF9080
:1047F000EF900895CF93DF93C7ECD0E060E0CE0157
:104800000E9443362196C11584E0D807B9F7DF919D
:10481000CF910895DF92EF92FF920F931F93CF9362
:10482000DF9300D000D0CDB7DEB7F82E8FE08F1524
:10483000E8F18FEF93E00E943536811137C007EC25
:1048400010E0FF2069F0011584E0180779F1C80134
:104850000E943536811101C0FA940F5F1F4FF1CFCE
:1048600019821A821B821C82DD24D39478018FEF77
:10487000E81AF80AC8010E94353689831A8288230B
:10488000A9F09FEF980F933058F48A83D9820E5F76
:104890001F4FC7010E9435368B83882339F078017A
:1048A000CE0101960E9459118701E0CF0F900F9021
:1048B0000F900F90DF91CF911F910F91FF90EF908C
:1048C000DF900895EF92FF920F931F93CF93DF93A2
:1048D000EC017B0164E670E088E70E94BF298C014F
:1048E000EC0EFD1ECE15DF0561F017FD0AC0FE01BE
:1048F000849164E670E00E94402A8C012196892B05
:1049000089F30E94C42AC801DF91CF911F910F91B2
:10491000FF90EF9008950895E4E7F2E080E092E0E0
:10492000DF019C011D9221503040E1F7F0937904A2
:10493000E09378048FEF9FEF9093510280935002A1
:1049400008950E948B2480934C0280FD02C080E871
:1049500001C080E280934B020E94B9296DE070E0B3
:1049600086E796E10E946224892B11F080E0089589
:1049700080914C0263E070E081FD03C083E796E123
:1049800002C080E796E10E946224892B79F76DE0EE
:1049900070E083E696E10E946224892B39F70E9439
:1049A000F42BDC01CB01805A9541AF4FBF4F809370
:1049B000740490937504A0937604B09377040E94D6
:1049C0008C2481E080934F0280934E0210924D021E
:1049D000089520914B0236E0839FC0011124629F0D
:1049E000800D911D1124811522E0920714F080E0C2
:1049F00090E08C589D4F90937904809378040895AB
:104A000020917804309179042E56324040914B0227
:104A1000642F70E0C9010E94A935481B463010F48C
:104A2000240F311D211582E0380710F020E030E01E
:104A30002C583D4F30937904209378040895CF93F8
:104A4000DF938A3011F481E003C08D3029F480E0D7
:104A5000DF91CF910C949525C62F682F8091780413
:104A60009091790426E0FC01A5E2B2E001900D925C
:104A70002A95E1F7603E30F026E0FC0111922A957C
:104A8000E9F70AC0F6E06F9FB00111246D57794E27
:104A900046E050E00E941F36C11135C0C091780435
:104AA000D091790446E050E0BE0185E292E00E9498
:104AB0002836892BB1F1C457D2409E0185E0369546
:104AC00027958A95E1F781E090E0AC0102C0440FA0
:104AD000551F2A95E2F72091500230915102242B64
:104AE000352B259645E0D695C7954A95E1F702C046
:104AF000880F991FCA95E2F7822B932B909351024E
:104B0000809350020EC0E0917804F09179049F01E7
:104B10002A5F3F4F2E173F0709F2808180958193CE
:104B2000F9CFDF91CF910C940025CF93E82F2091FE
:104B30007804309179042457324040914B02642F1D
:104B400070E0C9010E94A935481B842FEE2359F05B
:104B500066E00E949D35C82FC150B0F060E080E251
:104B60000E941F25F9CFA901480F511D4115524040
:104B700018F080E020E030E0280F311D2C583D4F28
:104B80003093790420937804CF9108951F93CF93A5
:104B9000DF93EC01162FFE018491882329F0612F09
:104BA0000E941F252196F7CFDF91CF911F91089585
:104BB000EF92FF920F931F93CF93DF93209178048E
:104BC0003091790424573240A901460F571F4130D4
:104BD000524020F060E072E0621B730BC091500203
:104BE000D0915102D901AC58BD4FA901620F731F7A
:104BF00001E010E046175707E8F4FA01E21BF30B57
:104C0000E80FF91FE491FC91EF1781F0EC93FA01A2
:104C1000689414F8F695E7951694E1F7780102C0C8
:104C2000EE0CFF1CEA95E2F7CE29DF294F5F5F4FBC
:104C30001196E0CFD0935102C0935002DF91CF91F3
:104C40001F910F91FF90EF90089580914F0288235C
:104C5000F9F00E94F42BDC01CB01805A9541AF4F53
:104C6000BF4F8093740490937504A0937604B0931F
:104C7000770480914E0281110BC062E070E081E602
:104C800096E10E946224892B19F481E080934E0200
:104C900080914E0208956F927F928F929F92AF9271
:104CA000BF92CF92DF92EF92FF920F931F93CF9319
:104CB000DF9380914F02882309F4DCC020915002D9
:104CC000309151022115310509F4D4C080914D0273
:104CD0008111D0C061E070E0082F10E03B01082E88
:104CE00002C0660C771C0A94E2F7A90146215721FD
:104CF000452B11F48F5FF0CF90914C02980165E045
:104D0000220F331F6A95E1F790FD12C08295880F3C
:104D1000807680930401220F232F221F330B3195BD
:104D200020930701815E809305011092080112C053
:104D300045E0369527954A95E1F7220F220F220F7D
:104D40002093040110920701295F2093050183E05D
:104D50008093080124E630E047E050E062E071E033
:104D600088E70E94702A892B09F084C080914C0248
:104D700080FD23C0A80195E0440F551F9A95E1F7E7
:104D80004C585D4F04E610E020E230E060E488E734
:104D90000E94972A892B09F06DC00E942526E30105
:104DA000C095D0958091500290915102C823D9238B
:104DB000D0935102C09350025DC080E2EBE2F2E07A
:104DC000DF011D928A95E9F785E0000F111F8A9592
:104DD000E1F7A7E9B1E043E951E0992493942D91DB
:104DE000EA018991AE01B801680F711D6C587D4FC1
:104DF00030E0255D3D4FF90197E07F01E21AF30AAB
:104E0000A92C01C0AA0CEA94EAF77B01B12CE701B6
:104E100089917E018A21892E8B18D82DD770CD2EAD
:104E20000D2E000CDD08C82F01C0CC0FDA95EAF773
:104E3000D194C194D108D7E0CD22DD2401C086955C
:104E4000CA94EAF78C2BD0808D298083B39488E0B4
:104E5000B812DDCF915031969F3F79F6C1E0AB3962
:104E6000BC0709F0BCCF04E610E020E230E04BE2E2
:104E700052E08CCFDF91CF911F910F91FF90EF9077
:104E8000DF90CF90BF90AF909F908F907F906F906A
:104E9000089580914F0290914E02882389F09923C2
:104EA00069F062E070E08FE596E10E946224892B50
:104EB00019F080914E02089510924E0290914E0288
:104EC00081E0892708950F931F9380914F028823D3
:104ED00029F160E080E00E94E9240E94240F0E94F2
:104EE0004B2680914E028823C9F00E94F42B00913A
:104EF0007404109175042091760430917704DC01DC
:104F0000CB01801B910BA20BB30B8F3F9F4FAF4F79
:104F1000BF4720F41F910F910C9449271F910F91C7
:104F200008950F931F93CF93DF93C42FD22FFC01CB
:104F300082818823C9F0409354020E94E82B909309
:104F400053028093520280E28C0F883008F057C0E1
:104F5000C77081E001C0880FCA95EAF7DF91CF9151
:104F60001F910F910C94571280915402481330C036
:104F700080915202909153020E94002C883C91052E
:104F800038F510E21D0FCD17B9F080E28C0F883094
:104F900040F4C77081E001C0880FCA95EAF70E940B
:104FA0005E12183028F581E09D2F977001C0880FA0
:104FB0009A95EAF70E945712802F0E944E121830DD
:104FC000F0F4D77081E001C0880FDA95EAF70AC0E3
:104FD00080E28C0F883098F4C77081E001C0880FA0
:104FE000CA95EAF7DF91CF911F910F910C945E1251
:104FF000802FDF91CF911F910F910C944E12DF9172
:10500000CF911F910F9108950F939C01CB01233FE6
:105010004CE5340731F188F4283DFCE53F07D9F031
:10502000293D4CE5340779F1273D3C45A9F506E2D9
:1050300021EE41EE67ED7CE52BC0253FFCE53F0707
:10504000E1F0A8F0263F3C4539F507E225EE46EEB3
:1050500066EF7CE51DC007E225EE45EE68ED7CE5D8
:1050600017C006E221EE40EE63EF7CE511C007E2D7
:1050700025EE44EE64EF7CE50BC006E221EE42EE45
:1050800065EF7CE505C008E221E045EE69ED7CE5D1
:105090000E94912780E008C0FC018281882319F0DA
:1050A0001092540201C081E00F910895CF93DF93D5
:1050B000EC01FB018281882309F426C1C330FDE5A0
:1050C000DF0760F4CA3F9CE5D90768F49E012250CF
:1050D0003C452431310508F018C105C0C136EDE565
:1050E000DE0709F012C10E94A31A90936B0280930D
:1050F0006A02C031FCE5DF0709F4CAC008F041C00C
:10510000C8309CE5D90709F4A4C0F0F4C430FCE52C
:10511000DF0709F48CC068F4C2309CE5D90709F4B4
:1051200082C0C330DC4509F0E5C080916A0282602C
:10513000DFC0C630FCE5DF0709F483C008F085C096
:1051400080916A028860D4C0CC309CE5D90709F40C
:1051500090C068F4CA30FCE5DF0709F47EC008F0AF
:1051600084C00E94A81480916A028068C1C0CE30B9
:105170009CE5D90709F481C008F086C080916A02D5
:1051800094C0CC3FFCE5DF0709F47BC038F5C4319F
:105190009CE5D90709F49AC058F4C231FCE5DF0751
:1051A00009F47AC008F07EC080916A028F7BA0C0AB
:1051B000CA3F9CE5D907F1F108F03FC0C531DC4595
:1051C00009F098C080916A0282FB222720F991E0C1
:1051D000922790FB82F990FB83F98AC0C1158DE577
:1051E000D80709F467C050F480916B02CE3FECE51C
:1051F000DE07C1F108F05BC08D7F65C0C2308DE570
:10520000D80709F471C008F46DC0C136DD4509F056
:1052100071C080916A0284FB222720F991E09227D5
:1052200090FB84F965C080916A02816061C08091C1
:105230006A0216C080916B0216C080916B02826078
:1052400042C080916A02806153C080916A0280628C
:105250004FC080916A0280644BC080916A0288606E
:10526000846046C0826081602EC080916A028E7F19
:105270003FC080916A028D7F3BC080916A02877F28
:1052800037C080916B0214C080916A028F7E30C05B
:1052900080916A028F7D2CC00E94A81480916A02BE
:1052A0008F7726C080916A02877F8B7F21C08D7F98
:1052B0008E7F09C080916B02982F909591708E7FA0
:1052C000892B90FB81F980936B0214C00E94A81473
:1052D00080916A0287FB222720F991E0922790FBB8
:1052E00087F906C081E001C080E00E94391B02C03E
:1052F00080936A0280916A0290916B020E94B41AB4
:105300000E94A81480E001C081E0DF91CF91089550
:10531000CF93DF9386319C4541F5EB010E94CB1979
:10532000982F8A812091000130910101882379F022
:105330009A7A81E009F480E080935502911102C0CD
:1053400069E201C065E3C9010E94552B0AC0809142
:105350005502811102C069E201C065E3C9010E94E2
:10536000572B0E941D1A80E001C081E0DF91CF9190
:1053700008951092B9008CE08093B80008959F9230
:10538000AF92BF92CF92DF92EF92FF920F931F9353
:10539000CF93DF93B82EEB010E94E82B6C01C43150
:1053A000D10558F0CF3F8FEFD80759F0CE0164E117
:1053B00070E00E94A9357B0107C0EE24E394F12C34
:1053C00003C025E0E22EF12C84E8A82E94EA992E61
:1053D0001092BC009092BC000E94E82B8C0180913E
:1053E000BC0087FD08C00E94E82B801B910B8E1526
:1053F0009F05A8F32AC08091B900887F883041F0CA
:105400008091B900887F803119F00FEF1FEF1FC026
:10541000B092BB00A092BC000E94E82B8C0180914E
:10542000BC0087FD08C00E94E82B801B910B8E15E5
:105430009F05A8F30AC08091B900887F883111F0D8
:10544000803419F700E010E00EC00EEF1FEFCF3FE1
:105450008FEFD80709F4BCCFC6010E94002C8C172F
:105460009D0708F4B5CFC801DF91CF911F910F912F
:10547000FF90EF90DF90CF90BF90AF909F900895F6
:105480000F931F93CF93DF93EB018093BB0084E8CE
:105490008093BC000E94E82B8C018091BC0087FDAA
:1054A0000EC0CF3F8FEFD807C1F30E94E82B801BBF
:1054B000910B8C179D0788F38EEF9FEF0CC0209106
:1054C000B900287F81E090E0283211F480E090E07C
:1054D000919581959109DF91CF911F910F91089539
:1054E000CF92DF92EF92FF920F931F93CF93DF93B0
:1054F0006B018A017901B9010E94BF29E6010C0DF7
:105500001D1DC017D10761F424E92093BC00DF9171
:10551000CF911F910F91FF90EF90DF90CF90089562
:1055200097FDF2CFB70189910E94402AEACFCF922E
:10553000DF92EF92FF920F931F93CF93DF93C62FCB
:105540006A017901B8010E94BF2997FD11C0B80115
:105550008C2F0E94402AE601EC0CFD1CCE15DF05C5
:1055600039F097FD05C0B80189910E94402AF6CF15
:1055700024E92093BC00DF91CF911F910F91FF9000
:10558000EF90DF90CF90089584E98093BC00089558
:1055900090935B0280935A020895E0915A02F09131
:1055A0005B02309721F00190F081E02D099480E0BA
:1055B00008950E94CD2A0895E0915A02F0915B026D
:1055C000309721F00280F381E02D09940895209115
:1055D0005802309159022817390771F090935902F7
:1055E00080935802E0915A02F0915B02309721F0CB
:1055F0000680F781E02D099408952091560230919C
:1056000057022817390771F090935702809356027A
:10561000E0915A02F0915B02309721F00084F1850D
:10562000E02D09940895FC01329697E080E09150B6
:1056300029F021912223D9F38F5FF9CF08956623B2
:1056400049F0FC01329608962191621729F0E8177B
:10565000F907D1F780E0089581E008959C01FC01ED
:1056600032969FEF80E04191461789F09F3F19F4F1
:10567000411101C0982F8F5F8630A9F79F3F39F005
:10568000F901E90FF11D97FDFA95628308950895D8
:105690009C012A5F3F4FFC014281461301C01282E8
:1056A000019682179307B9F708950C942E2B0C944A
:1056B000482B029626E0FC0111922A95E9F70895FD
:1056C000089508950C94612B0C94612BCF930E9444
:1056D000642B0E94461F0E94622BC0E08C2F0E9408
:1056E000751E811104C0CF5FC430C1F701C081E0D5
:1056F000CF9108950C94612B0C947A2B80918204A5
:10570000843049F10E947C2B80E00E946411109249
:105710005C0220E488E190E00FB6F894A8958093AD
:1057200060000FBE2093600083B7817F846083BFD9
:1057300083B7816083BF7894889583B78E7F83BF5A
:105740000FB6F894A89580916000886180936000FE
:10575000109260000FBE08950C94612B0E94A81453
:105760000E94CD2A0E9464110C94AC2B1F920F92C0
:105770000FB60F9211248F939F93AF93BF93809195
:105780005C02811113C080917A0490917B04A091F6
:105790007C04B0917D044196A11DB11D80937A04D3
:1057A00090937B04A0937C04B0937D04BF91AF9150
:1057B0009F918F910F900FBE0F901F90189582E0D0
:1057C00084BD93E095BD9AEF97BD80936E000895D8
:1057D0002FB7F89480917A0490917B04A0917C0477
:1057E000B0917D042FBF08952FB7F89460917A048B
:1057F00070917B0480917C0490917D042FBF08956B
:105800009C014FB7F89480917A0490917B04A09109
:105810007C04B0917D044FBF821B930B0895CF92FF
:10582000DF92EF92FF922FB7F894C0907A04D09055
:105830007B04E0907C04F0907D042FBFA7019601CB
:10584000261B370B480B590BCA01B901FF90EF908B
:10585000DF90CF90089578941F920F920FB60F9219
:1058600011248F939F93AF93BF9380917A0490916B
:105870007B04A0917C04B0917D040196A11DB11D13
:1058800080937A0490937B04A0937C04B0937D046E
:10589000BF91AF919F918F910F900FBE0F901F906E
:1058A000189587E797E790930108809300089AE09E
:1058B00088E10FB6F894A895809360000FBE90938E
:1058C0006000FFCF9093AB018093AA01089580916F
:1058D0006802089590918204943029F580935D02C6
:1058E00070935F0260935E029093E9008FEF909156
:1058F000E800815095FD06C095ED9A95F1F70000FE
:105900008111F5CF8091E80085FF0DC040E050E0A7
:1059100063E070E08DE592E00E94C52E8091E80082
:105920008E778093E8000895BC0184E00C946A2C83
:10593000BC0183E00C946A2CCF93DF9321E0209389
:10594000E9002FEF3091E800215035FD06C035ED1C
:105950003A95F1F700002111F5CF2091E80025FFDD
:1059600014C0EC0140E050E068E070E00E94C52EF9
:105970008091E8008E778093E80088E0FE01A0E641
:10598000B2E001900D928A95E1F7DF91CF910895F1
:105990000895CF93603219F5209182042430F9F4F0
:1059A000C091E900CF703091EC00232F217030FDC1
:1059B00020E8C22B22E02093E9002091E80020FF9C
:1059C0000BC040E050E060E270E00E94C52E809184
:1059D000E8008E778093E800CF70C093E900CF9104
:1059E000089580918104811109C00E94A1300E9414
:1059F000FE308091E20084608093E200089510926E
:105A00008104089508950895089542E061EC81E0CD
:105A10000E941A3042E261EC84E00E941A3042E2B5
:105A200061EC82E00E941A3042E260EC83E00C9468
:105A30001A3080918404833009F462C030F48130DC
:105A400071F0823009F49BC008958A3009F487C050
:105A50008B3009F46DC0893009F0A9C020C0809155
:105A60008304813A09F0A3C08091E800877F809386
:105A7000E8008091870490918804892B21F468E0E4
:105A800080E692E003C060E080E090E070E00E9479
:105A90005B2F8091E8008B778093E80008958091D8
:105AA0008304813209F083C0809187049091880437
:105AB000009719F0029709F07AC08091E800877F7B
:105AC0008093E8008091E80082FD05C08091820407
:105AD0008111F8CF6CC02091F3008091F20090E02A
