:100000000C94ED0D0C94340E0C94340E0C94340EB0
:100010000C94340E0C94340E0C94340E0C94340E58
:100020000C94340E0C94340E0C94312D0C94032E3D
:100030000C947F280C94340E0C94340E0C94340ED3
:100040000C94340E0C94340E0C94340E0C94340E28
:100050000C94340E0C94F4280C94340E0C94340E3E
:100060000C94340E0C94340E0C94340E0C94340E08
:100070000C94340E0C94340E0C94340E0C94340EF8
:100080000C94340E0C94340E0C94340E0C94340EE8
:100090000C94340E0C94340E0C94340E0C94340ED8
:1000A0000C94340E0C94340E0C94340E2311231142
:1000B00055115511A211D612D612D612C0115512D1
:1000C00066126612C612D612D612CF1272137213AD
:1000D000841384137B138413841384137213721395
:1000E0008013841384138013702E972E8F2F972ED6
:1000F0008F2FE32E062F8F2F5D2F6C2F0000000017
:1001000000000000000000000000000000000000EF
:1001100000000000000000000000000000000000DF
:1001200000000000000000000000000000000000CF
:1001300000000000000000000000008080404040FF
:100140002020202020180402010204081020204052
:10015000408080000000000000000000000000005F
:10016000000000000000000000000000000000008F
:10017000000000000000000000000000000000007F
:10018000000000000000000000000000000000006F
:10019000000000000000000000000000000000005F
:1001A0000000000000000000000000000000003F10
:1001B000C101010202040404040202010000000063
:1001C00000000000800000408080400000303000CF
:1001D0000000000102040408081020408080808094
:1001E000404040402020202010101010080808082F
:1001F00004040404020202020101010100000000E3
:1002000000000000000000000000000000000000EE
:1002100000000000000000000000000000000000DE
:100220000000000000000000000000000000E018D6
:100230000601000000000000000000000080838331
:1002400040404040202121201010101008080808CC
:100250000404040404083040808000000186986093
:10026000000000000000000000000000000000008E
:10027000000000000000000000000000000000007E
:10028000000000000000000000000000000000006E
:10029000000000000000000000000000808080805E
:1002A000404040402020202010101010080F080867
:1002B0000404040402040810102020404041422499
:1002C0001800000000000000000000000000000016
:1002D000000000000000000000000101010000001B
:1002E000000000000000000000000000000000000E
:1002F00000000000000000000000000000000000FE
:1003000000000000000000000000000000000000ED
:1003100000000000000000000000000000000000DD
:1003200000000000000000000000000000000000CD
:1003300000000000000000000000000000000000BD
:1003400000000000000000000000000000000000AD
:10035000000000000000000000000000000000009D
:10036000000000000000000000000000000000008D
:10037000000000000000000000000000000000007D
:10038000000000000000000000000000000000006D
:10039000000000000000000000000000000000005D
:1003A000000000000000000000000000000000004D
:1003B000000000000000000000008080404040205D
:1003C0001008040201020408102040808000000090
:1003D000000000000000000000000000000000001D
:1003E000000000000000000000000000000000000D
:1003F00000000000000000000000000000000000FD
:1004000000000000000000000000000000000000EC
:1004100000000000000000000000000000000000DC
:1004200000000000000000000000003FC1010102C8
:1004300002040404040202010101000000000000A3
:1004400000000080000080000060600000010204E5
:1004500004080810102020408080808040404040E8
:10046000202020201010101008080808040404049C
:100470000202020201010101000000000000000070
:10048000000000000000000000000000000000006C
:10049000000000000000000000000000000000005C
:1004A00000000000000000000000C0300C0300004D
:1004B00000000000000000000080868640404040B0
:1004C0002122222011111010080808080404040435
:1004D0000408304080800000018698600000000021
:1004E000000000000000000000000000000000000C
:1004F00000000000000000000000000000000000FC
:1005000000000000000000000000000000000000EB
:1005100000000000000000008080808040404040DB
:100520002020202010101010080F080804040404D4
:10053000020408101020204040414224180000000E
:1005400000000000000000000000000000000000AB
:100550000000000000000101010000000000000098
:10056000000000000000000000000000000000008B
:10057000000000000000000000000000000000007B
:10058000000000000000000000000000000000006B
:10059000000000000000000000000000000000005B
:1005A000000000000000000000000000000000004B
:1005B000000000000000000000000000000000003B
:1005C000000000000000000000000000000000002B
:1005D000000000000000000000000000000000001B
:1005E000000000000000000000000000000000000B
:1005F00000000000000000000000000000000000FB
:1006000000000000000000000000000000000000EA
:1006100000000000000000000000000000000000DA
:1006200000000000000000000000000000000000CA
:1006300000000000000080808080404020100804FE
:10064000020408102040808000000000000000002C
:10065000000000000000000000000000000000009A
:10066000000000000000000000000000000000008A
:10067000000000000000000000000000000000007A
:10068000000000000000000000000000000000006A
:10069000000000000000000000000000000000005A
:1006A000000000000000007E820202040408080826
:1006B00008040402010100000000000000000080A6
:1006C00000008000006060000101020404080810BE
:1006D000102020408080808040404040202020200A
:1006E0001010101008080808040404040202020292
:1006F00001010101000000000000000000000000F6
:1007000000000000000000000000000000000000E9
:1007100000000000000000000000000000000000D9
:10072000000000000000C0300C03000000000000CA
:1007300000000000008086864040404021222220A8
:1007400011111010080808080404040404083040BB
:10075000808000000186986000000000000000001A
:100760000000000000000000000000000000000089
:100770000000000000000000000000000000000079
:100780000000000000000000000000000000000069
:1007900000000000808080804040404020202020D9
:1007A00010101010080F08080404040402040810B4
:1007B00010202040404142241800000000000000AA
:1007C0000000000000000000000000000000000029
:1007D0000000010101000000000000000000000016
:1007E0000000000000000000000000000000000009
:1007F00000000000000000000000000000000000F9
:1008000000000000000000000000000000000000E8
:1008100000000000000000000000000000000000D8
:1008200000000000000000000000000000000000C8
:1008300000000000000000000000000000000000B8
:1008400000000000000000000000000000000000A8
:100850000000000000000000000000000000000098
:100860000000000000000000000000000000000088
:100870000000000000000000000000000000000078
:100880000000000000000000000000000000000068
:100890000000000000000000000000000000000058
:1008A0000000000000000000000000000000000048
:1008B000000080808080404020100804020408105E
:1008C00020408080000000000000000000000000C8
:1008D0000000000000000000000000000000000018
:1008E0000000000000000000000000000000000008
:1008F00000000000000000000000000000000000F8
:1009000000000000000000000000000000000000E7
:1009100000000000000000000000000000000000D7
:1009200000001C34C4040404080808080804040275
:1009300001010000000000008000004080804000B5
:1009400000303000010102020404040808102040B5
:1009500080808080404040402020202010101010D7
:10096000080808080404040402020202010101014B
:100970000000000000000000000000000000000077
:100980000000000000000000000000000000000067
:100990000000000000000000000000000000000057
:1009A0000000E01806010000000000000000000048
:1009B00000808383404040402021212010101010EF
:1009C000080808080404040404083040808000007B
:1009D0000186986000000000000000000000000098
:1009E0000000000000000000000000000000000007
:1009F00000000000000000000000000000000000F7
:100A000000000000000000000000000000000000E6
:100A10008080808040404040202020201010101016
:100A2000080F0808040404040204081010202040E1
:100A300040414224180000000000000000000000B7
:100A400000000000000000000000000000000101A4
:100A50000100000000000000000000000000000095
:100A60000000000000000000000000000000000086
:100A70000000000000000000000000000000000076
:100A80000000000000000000000000000000000066
:100A90000000000000000000000000000000000056
:100AA0000000000000000000000000000000000046
:100AB0000000000000000000000000000000000036
:100AC0000000000000000000000000000000000026
:100AD0000000000000000000000000000000000016
:100AE0000000000000000000000000000000000006
:100AF00000000000000000000000000000000000F6
:100B000000000000000000000000000000000000E5
:100B100000000000000000000000000000000000D5
:100B20000000000000000000000000808040404005
:100B30002020202020180402010204081020204058
:100B40004080800000000000000000000000000065
:100B50000000000000000000000000000000000095
:100B60000000000000000000000000000000000085
:100B70000000000000000000000000000000000075
:100B80000000000000000000000000000000000065
:100B900000000000000000000000000000060D3111
:100BA000C10101010202020404020201000000006E
:100BB00000000000800000408080400000303000D5
:100BC000000000010204040808102040808080809A
:100BD0004040404020202020101010100808080835
:100BE00004040404020202020101010100000000E9
:100BF00000000000000000000000000000000000F5
:100C000000000000000000000000000000000000E4
:100C10000000000000000000000000000000E018DC
:100C20000601000000000000000000000080838337
:100C300040404040202121201010101008080808D2
:100C40000404040404083040808000000186986099
:100C50000000000000000000000000000000000094
:100C60000000000000000000000000000000000084
:100C70000000000000000000000000000000000074
:100C80000000000000000000000000008080808064
:100C9000404040402020202010101010080F08086D
:100CA000040404040204081010202040404142249F
:100CB000180000000000000000000000000000001C
:100CC0000000000000000000000001010100000021
:100CD0000000000000000000000000000000000014
:100CE0000000000000000000000000000000000004
:100CF00000000000000000000000000000000000F4
:100D000000000000000000000000000000000000E3
:100D100000000000000000000000000000000000D3
:100D200000000000000000000000000000000000C3
:100D300000000000000000000000000000000000B3
:100D400000000000000000000000000000000000A3
:100D50000000000000000000000000000000000093
:100D60000000000000000000000000000000000083
:100D70000000000000000000000000000000000073
:100D80000000000000000000000000000000000063
:100D90000000000000000000000000000000000053
:100DA0000000000000000000000080808040402023
:100DB0002010080402040810102020404080800009
:100DC0000000000000000000000000000000000023
:100DD0000000000000000000000000000000000013
:100DE0000000000000000000000000000000000003
:100DF00000000000000000000000000000000000F3
:100E000000000000000000000000000000000000E2
:100E100000000000000000000000003FC1010102CE
:100E200002048444444282010101000000000000E9
:100E30008000004080804000003030000000000151
:100E40000264180412C2CA2488F0808040404040E6
:100E500020202020101010100808080804040404A2
:100E60000202020201010101000000000000000076
:100E70000000000000000000000000000000000072
:100E80000000000000000000000000000000000062
:100E900000000000000000000000E0180601000053
:100EA0000C03000218190005FE8083834040404077
:100EB0002021212010101010080808080404040440
:100EC0000202020201010101000000000000000016
:100ED0000000000000000000000000000000000012
:100EE0000000000000000000000000000000000002
:100EF00000000000000000000000000000000000F2
:100F000000000000000000008080808040404040E1
:100F10002020202010101010080F080804040404DA
:100F200002020202010101010000000000000000B5
:100F300000000000000000000000000000000000B1
:100F400000000000000000000000000000000000A1
:100F50000000000000000000000000000000000091
:100F60000000000000000000000000000000000081
:100F70000000000000000000000000000000000071
:100F80000000000000000000000000000000000061
:100F90000000000000000000000000000000000051
:100FA0000000000000000000000000000000000041
:100FB0000000000000000000000000000000000031
:100FC0000000000000000000000000000000000021
:100FD0000000000000000000000000000000000011
:100FE0000000000000000000000000000000000001
:100FF00000000000000000000000000000000000F1
:1010000000000000000000000000000000000000E0
:1010100000000000000000000000000000000000D0
:101020000000000000008080804040202010080464
:1010300002040810102020404080800000000000C2
:1010400000000000000000000000000000000000A0
:101050000000000000000000000000000000000090
:101060000000000000000000000000000000000080
:101070000000000000000000000000000000000070
:101080000000000000000000000000000000000060
:10109000000000000000003FC1010102020404043E
:1010A0000402020101010000000000008000004075
:1010B000808040000030300000000001026418040D
:1010C00012C2CA2488F08080404040402020202066
:1010D0001010101008080808040404040202020298
:1010E00001010101000000000000000000000000FC
:1010F00000000000000000000000000000000000F0
:1011000000000000000000000000000000000000DF
:10111000000000000000E0180601000000000000D0
:1011200000000000008083834040404020212120B7
:101130001010101008080808040404040202020237
:10114000010101010000000000000000000000009B
:10115000000000000000000000000000000000008F
:10116000000000000000000000000000000000007F
:10117000000000000000000000000000000000006F
:1011800000000000808080804040404020202020DF
:1011900010101010080F08080404040402040810BA
:1011A000102020404041422498C088888C9C1C1EFE
:1011B0000E0600000000000000000000000000001B
:1011C000000000000000000000000000000000001F
:1011D000000000000000000000000000000000000F
:1011E00000000000000000000000000000000000FF
:1011F00000000000000000000000000000000000EF
:1012000000000000000000000000000000000000DE
:1012100000000000000000000000000000000000CE
:1012200000000000000000000000000000000000BE
:1012300000000000000000000000000000000000AE
:10124000000000000000000000000000000000009E
:10125000000000000000000000000000000000008E
:10126000000000000000000000000000000000007E
:10127000000000000000000000000000000000006E
:10128000000000000000000000000000000000005E
:10129000000000000000000000000000000000004E
:1012A00000008080804040202010080402040810C4
:1012B000102020404080800000000000000000005E
:1012C000000000000000000000000000000000001E
:1012D000000000000000000000000000000000000E
:1012E00000000000000000000000000000000000FE
:1012F00000000000000000000000000000000000EE
:1013000000000000000000000000000000000000DD
:101310000000003FC10101020204844444428201F2
:1013200001010000000000008000004080804000BB
:1013300000303000000000010204040808102040C2
:1013400080808080404040402020202010101010DD
:101350000808080804040404020202020101010151
:10136000000000000000000000000000000000007D
:10137000000000000000000000000000000000006D
:10138000000000000000000000000000000000005D
:101390000000E018060100000C0300021819000507
:1013A000FE808383404040402021212010101010F7
:1013B0000808080804040404040830408080000081
:1013C000018698600000000000000000000000009E
:1013D000000000000000000000000000000000000D
:1013E00000000000000000000000000000000000FD
:1013F00000000000000000000000000000000000ED
:10140000808080804040404020202020101010101C
:10141000080F080804040404020202020101010189
:1014200000000000000000000000000000000000BC
:10143000000000060F0F07030361F0F8FC600101D4
:10144000013C78F8F070000000000000000000008F
:10145000000000000000000000000000000000008C
:10146000000000000000000000000000000000007C
:10147000000000000000000000000000000000006C
:10148000000000000000000000000000000000005C
:10149000000000000000000000000000000000004C
:1014A000000000000000000000000000000000003C
:1014B000000000000000000000000000000000002C
:1014C000000000000000000000000000000000001C
:1014D000000000000000000000000000202020208C
:1014E0002020200043415053000000240025002606
:1014F000002A000000210022002300290000001E15
:10150000001F0020002B00AE000158270037622882
:10151000000000010001000100005C00000100016A
:101520000001005700000001000100010056002BDF
:101530005D0100010001002E00000001000100011A
:101540000001000000010001000100010000000195
:101550000001000100010001000100010001000183
:101560000000000100010001000100000001000175
:101570000001000100000001000100010001000164
:1015800000010001000100010000AE00AF00DA021E
:1015900081FFD9F1DB20A4A62EAF00A0C000A1C816
:1015A00000AED580A81FD300408D14200007087F0F
:1015B0000807003E5B4F5B3E003E6B4F6B3E001CDE
:1015C0003E7C3E1C00183C7E3C18001C577D571C7E
:1015D000001C5E7F5E1C0000183C180000FFE7C383
:1015E000E7FF00001824180000FFE7DBE7FF0030EA
:1015F000483A060E00262979292600407F0505076E
:1016000000407F05253F005A3CE73C5A007F3E1CC6
:101610001C0800081C1C3E7F0014227F2214005F5F
:101620005F005F5F0006097F017F00006689956AA1
:101630000060606060600094A2FFA2940008047ED5
:1016400004080010207E20100008082A1C0800084A
:101650001C2A0808001E10101010000C1E0C1E0C76
:101660000030383E383000060E3E0E060000000006
:1016700000000000005F00000000070007000014E9
:101680007F147F1400242A7F2A1200231308646227
:1016900000364956205000000807030000001C22B5
:1016A0004100000041221C00002A1C7F1C2A000867
:1016B000083E08080000807030000008080808088C
:1016C000000000606000002010080402003E514944
:1016D000453E0000427F40000072494949460021D2
:1016E00041494D33001814127F10002745454539F4
:1016F000003C4A4949310041211109070036494956
:10170000493600464949291E000000140000000027
:101710004034000000000814224100141414141472
:10172000000041221408000201590906003E415DF3
:10173000594E007C1211127C007F49494936003E07
:1017400041414122007F4141413E007F4949494199
:10175000007F09090901003E41415173007F0808DB
:10176000087F0000417F4100002040413F01007F91
:1017700008142241007F40404040007F021C027F4D
:10178000007F0408107F003E4141413E007F09096F
:101790000906003E4151215E007F091929460026B5
:1017A000494949320003017F0103003F4040403F67
:1017B000001F2040201F003F4038403F00631408B6
:1017C0001463000304780403006159494D43000089
:1017D0007F41414100020408102000004141417F47
:1017E00000040201020400404040404000000307A2
:1017F0000800002054547840007F284444380038C2
:101800004444442800384444287F00385454541831
:101810000000087E09020018A4A49C78007F080438
:1018200004780000447D4000002040403D00007FDF
:10183000102844000000417F4000007C04780478B8
:10184000007C0804047800384444443800FC182420
:1018500024180018242418FC007C080404080048FC
:10186000545454240004043F4424003C4040207C51
:10187000001C2040201C003C4030403C004428100C
:101880002844004C9090907C004464544C440000E8
:1018900008364100000000770000000041360800D3
:1018A000000201020402003C2623263C0000000046
:1018B000000000404040F0F8F8FF38FFF8F83FF82B
:1018C000F8FF38FFF8F8F04040400000000000004A
:1018D00080C0C0C0800000C0C08000000080C0C0C8
:1018E00000C0C0000080C0C00000000000C0C0C038
:1018F000C0C000C0C00000000000000000000000E8
:1019000000000000000000000000000000000000D7
:1019100000000000000000000000000000000000C7
:10192000000000000000000000000000C0F0F8FC13
:101930003E1E06010000007F4141417F007F414182
:10194000417F000080C0E07E5B4F5BFEC00000C0B6
:1019500000DCD7DEDEDED7DC00C0000000000000C7
:101960000000000000000000000000000000000077
:10197000000000494949FFFFFFFFE0DFBFBF00BF94
:10198000BFDFE0FFFFFFFF49494900000000001FE3
:101990003F6060E0BF1F007F7F071E381E077F7F0C
:1019A000007F7F0E1F3B716000000000007F7F0CF6
:1019B0000C0C007E7E007F7E0303007F7E03037E8F
:1019C0007E03037F7E000F3E703C063C703E0F009E
:1019D000327B49493F7E007F7E0303001E3F6969D9
:1019E0006F2600000000000000000000030F1F3FF2
:1019F0003C7870600000007F4141417F007F4141A1
:101A0000417F00307B7F7830202030787F3B00039F
:101A1000000F7F0F0F0F7F0F00030000000000007A
:101A200000000000000000000000000000000000B6
:101A3000000000010101070F0F7F0F7F0F0F7E0FC6
:101A40000F7F0F7F0F0F0701010100000000000052
:101A50000000000001010000000000000000000084
:101A60000000000000000000000000000000000076
:101A70000000000000000000000000000000000066
:101A80000000000000000000000000000000000056
:101A90000000000000000000000000000000000046
:101AA0000000000000000000000000000000000036
:101AB0000000000000000000000000000000000026
:101AC0000000000000000000000000000000000016
:101AD0000000000000000000000000000000000006
:101AE000000000000000000000000000001003647F
:101AF0000075006D00620070006100640000001657
:101B00000369006D00630068006900700077006F72
:101B1000006F00640000000403090409023B000296
:101B20000100A0FA090400000103010100092111CC
:101B30000100012240000705810308000A09040191
:101B400000010300000009211101000122320007F9
:101B500005820320000A12010002000000084B4326
:101B6000504001000102000105010980A101850327
:101B700019012AB700150126B700950175108100DB
:101B8000C0050C0901A101850419012AA002150153
:101B900026A002950175108100C005010906A1016A
:101BA000050719E029E7150025019508750181024F
:101BB0009501750881010507190029FF150026FF09
:101BC0000095067508810005081901290595057518
:101BD000019102950175039101C011241FBECFEF41
:101BE000DAE0DEBFCDBF04B603FE27C080919B04C0
:101BF00090919C04A0919D04B0919E048730904BDD
:101C0000A740B04BD1F410929B0410929C04109208
:101C10009D0410929E0414BE84B7877F84BF0FB6C4
:101C2000F894A8958091600088618093600010927C
:101C300060000FBEE0E0F8E3099511E0A0E0B1E03C
:101C4000E2EEFAE602C005900D92A43AB107D9F788
:101C500024E0A4EAB1E001C01D92AB39B207E1F77C
:101C60000E94391F0C946F350C9400000E94441F91
:101C70008531E8F48091A70190E0019665E070E07D
:101C80000E94D2318093A70124E030E0281B390B59
:101C90004CE752E0249FC001259F900D349F900D8A
:101CA00011246CE772E084509F4F0E94A1220E9491
:101CB000441F853150F00E94441F883230F46CE795
:101CC00072E088E69DE00E94A1220E94441F8832B3
:101CD000D8F08091A60190E00196817099278093B9
:101CE000A60121E030E0281B390B4CE752E0249F8D
:101CF000C001259F900D349F900D11246CE772E078
:101D00008C51904F0C94A1220895811106C0662336
:101D100011F08BEA09C08CEA07C0813039F46623E0
:101D200011F089EA01C08AEA0E94D91081E0089581
:101D3000CF930E94441F882341F10E94EE226091BC
:101D4000AC017091AD018091AE019091AF010E9404
:101D5000D828693C71058105910560F00E94BD2875
:101D60006093AC017093AD018093AE019093AF018D
:101D70000E94360E0E94BD286093A8017093A901AD
:101D80008093AA019093AB012DC06091A80170913E
:101D9000A9018091AA019091AB010E94D8286136D7
:101DA0007A4E8105910518F00E9412241BC06091A3
:101DB000AC017091AD018091AE019091AF010E9494
:101DC000D828693C71058105910560F00E94BD2805
:101DD0006093AC017093AD018093AE019093AF011D
:101DE0000E94360E60E080E00E9496210E94441F0F
:101DF0001F928F9384E191E09F938F9380E792E00D
:101E00009F938F930E94433260E080E792E00E94AC
:101E100073220E94A227C82F61E080E00E949621D1
:101E20000F900F900F900F900F900F90C1FD03C077
:101E30008CED94E102C084EE94E160E0CF910C94CB
:101E40008F2281E0089581E008950C94230F089576
:101E50000C94270F1F93CF93DF9300D000D01F92D5
:101E6000CDB7DEB749835A836B833091B001898146
:101E70009A81311114C0662359F0222349F00E943F
:101E80001815182F682F89819A810E94BF1403C0EA
:101E90000E94EB14182F69817A81812F04C00E945F
:101EA000181569817A810F900F900F900F900F9005
:101EB000DF91CF911F910C94BC1BFC01262F408118
:101EC00051816281738184810C942A0F81E008958D
:101ED000CF93DF93EC0160E00E945D0FBE01DF91C4
:101EE000CF910C94280F0E94CB1D0E94EE0F0C94F2
:101EF000051E0E94C21F0C94011E08950E946013CB
:101F00000E947D0F2FEF84E39CE0215080409040A1
:101F1000E1F700C000000C941A290F931F93CF9390
:101F2000DF938C0161E00E945D0FEC01F80182817A
:101F3000882319F0CE010E94701FB801CE010E94C3
:101F4000250F8823F1F1B801CE010E94CD2488230A
:101F5000C1F1B801CE010E941F25882391F1B8017B
:101F6000CE010E945126882361F1F80182818823E5
:101F700009F1CB35FDE5DF07C1F050F4C115ECE503
:101F8000DE0781F0CF3DDC45A9F40E94AD1A19C0EF
:101F9000CC358DE5D80761F0CD35DD4559F40E948B
:101FA000371908C00E947E0F0CC00E94401902C061
:101FB0000E944319C801DF91CF911F910F910C949A
:101FC000210F80E0DF91CF911F910F910895089527
:101FD0000C94E70F81E008950C94EA0F0895CF93D5
:101FE000C82F0E94E80F8C2F0E94EC0FCF9108950C
:101FF000CF93DF93CDB7DEB72B970FB6F894DEBF44
:102000000FBECDBF4F83588769877A878B87611151
:102010000E9466199E012F5F3F4F86E0F9011192E1
:102020008A95E9F785E0FE013796D90101900D9276
:102030008A95E1F789819A814C815D81452B31F048
:102040009F3F31F491E08F3F19F403C091E001C04C
:1020500090E090FF09C049815A816B817C818D811C
:102060009E810E94661805C0C9010E94660F8111F9
:10207000F2CF2B960FB6F894DEBF0FBECDBFDF9127
:10208000CF910895FC01808191810E945A15089595
:10209000CF93882309F448C0C82F8CEF8C0F813A66
:1020A000D0F46C2F80910001909101010E94E827EB
:1020B000882349F06C2F80910001909101010E94CA
:1020C00020280E9498196C2F8091000190910101A5
:1020D0000E941E280CC080E28C0F883058F4C77014
:1020E00081E001C0880FCA95EAF70E944919CF9193
:1020F0000C949819EBE5EC0FE33040F4F0E0E55B6D
:10210000FE4F808190E0CF910C94B027C85AC73120
:1021100058F4EC2FF0E0EE0FFF1FE35EFE4F8081DE
:102120009181CF910C94C627CF910895882349F1CE
:10213000682F8CEF860F813A38F4809100019091DE
:1021400001010E9420280CC080E2860F883050F4E4
:10215000677081E001C0880F6A95EAF70E944F1905
:102160000C9498198BE5860F833020F480E090E082
:102170000C94B027685A673120F480E090E00C940A
:10218000C62708951F93CF93DF93182FEB010E946A
:102190004810209741F08FE99FE00197F1F700C0C8
:1021A00000002197F6CF812FDF91CF911F910C94E2
:1021B0009610893319F060E070E002C060E570E0CD
:1021C0000C94C210882321F00E9449190C9498198C
:1021D0000895882321F00E944F190C9498190895AE
:1021E000CF92DF92EF92FF920F931F93CF93DF93E3
:1021F0007C01062FC72FFC01D281158112951F701B
:102200000E941E19882399F0DD2389F08C2F807F8E
:10221000803421F080E2800F883048F082E00E9414
:10222000E8190E941E1991E0D82ED92601C0D12CA0
:10223000CC2EC2948FE0C8228C2D90E0FC01EA5A8B
:10224000FF4F0C9405328C2F807FCF70882311F0C4
:10225000C295C07FDD2399F0CC2309F482C180E2CE
:10226000800F883010F0011104C08C2F0E94491992
:1022700003C08C2F0E9459190E94981972C1802F97
:102280000E949610CC2309F491C180E2800F88301F
:1022900010F0011104C08C2F0E944F1903C08C2F25
:1022A0000E945F190E94981981C18C2F807FCF7086
:1022B000803211F0C295C07F002319F00130C9F0BF
:1022C00022C0DD2371F0112341F0113031F40E945E
:1022D00079198C2B0E94811969C10E9479198C2B64
:1022E0001DC0112319F0113009F460C10E948E192C
:1022F00025C0DD2321F0133008F058C10EC0123084
:1023000008F054C11BC0DD2361F0112331F0F70147
:10231000858180FF26C18F7085838C2F0E94E210FB
:1023200045C1112359F0093309F02CC1FFEF27EE05
:1023300083E0F15020408040E1F722C18C2F0E94C1
:10234000E91034C18C2F86958695837019F0813001
:1023500061F02CC1DD2321F0802F9C2F937002C0EF
:1023600080E090E00E94B02729C1DD2321F0802F7A
:102370009C2F937002C080E090E00E94C6271EC18F
:102380008C2F837009F045C0D11114C1402F4295A4
:1023900046954770440F440F602F6F70862F90E072
:1023A000A0E0B0E0042E04C0880F991FAA1FBB1F35
:1023B0000A94D2F704FF10C00FE010E020E030E0F4
:1023C00004C0000F111F221F331F4A95D2F700953A
:1023D00010952095309503C000E010E09801C69557
:1023E000C695C370BC01CD01602B712B822B932B42
:1023F000C23049F058F4C13019F00E94D513DAC048
:102400000E94C313D7C00E94E713D4C00E94C11317
:10241000D1C0DD2319F08C2F817001C086958823EF
:1024200009F4C8C0402F429546954770440F440FA9
:10243000602F6F70862F90E0A0E0B0E0042E04C003
:10244000880F991FAA1FBB1F0A94D2F704FF10C060
:102450000FE010E020E030E004C0000F111F221F49
:10246000331F4A95D2F7009510952095309503C0FB
:1024700000E010E09801C695C695C370BC01CD017F
:10248000602B712B822B932BC23049F058F4C13052
:1024900019F00E949A148EC00E9488148BC00E946A
:1024A000AC1488C00E94FB1385C0CF70DD2339F0C7
:1024B0008C2F0E942114802F0E94E2107BC0802F5D
:1024C0000E94E9108C2F0E94421474C0023F01F157
:1024D00028F4003F41F0013FA1F03FC0033FF9F075
:1024E000043F39F13AC0DD2341F0123008F05EC0FC
:1024F0008C2F8F710E94671459C0133008F056C09A
:10250000F7CFDD2339F08C2F8F710E9421144EC03C
:10251000DD23C9F38C2F8F710E94421447C0DD2345
:1025200029F08C2F8F710E940C1440C00E94071458
:102530003DC0DD2349F0CF718C2F0E94211463E050
:102540008C2F0E94CD1932C081E00E94E819123010
:1025500068F182E00E94E81929C0DD2331F01123DF
:1025600091F2802F0E94481021C0112399F2093363
:1025700049F49FEFE7EEF3E09150E040F040E1F7DF
:1025800000C00000802F0E94961010C04C2F4F708A
:10259000602FC7010E94B81B0E9488150FC04C2FE6
:1025A0004F70602FC7010E94BB1B08C088EF8C0DC5
:1025B000843020F40E9496270E94EF0FDD20C9F09E
:1025C0000E941A1980FD15C0F70112820E94141989
:1025D0000E942114C7010E941A130E941419DF914E
:1025E000CF911F910F91FF90EF90DF90CF900C94BF
:1025F0004214DF91CF911F910F91FF90EF90DF90E8
:10260000CF9008950F931F93CF93DF93EC016881D0
:1026100079818A810E9465158C010E94BE140E94F6
:10262000AF13B801CE010E94F010DF91CF911F913E
:102630000F910895CF93DF93EC01988189812B81CD
:102640003C81232B31F08F3F31F481E09F3F19F41F
:1026500003C081E001C080E080FD19C0CE010E946E
:102660008D0F81110CC00E941E19882381F08A8170
:10267000882369F082E0DF91CF910C94E819CE01B4
:102680000E940213CE01DF91CF910C94680FDF916D
:10269000CF91089580E090E00E94B02780E090E024
:1026A0000E94C6270E9466190E9476190C949819F8
:1026B00080910001909101010E9422280C944A13FC
:1026C0000E9456190C945813E92FE295EF704E2F83
:1026D00050E0FA013297EE30F105B0F4EA59FF4FBD
:1026E0000C940532803F91F018F4883E68F40EC0D7
:1026F000843F51F40BC0883E48F0813F29F406C066
:1027000093FB882780F9089580E0089581E008957B
:10271000FC01808191810E945A150E9464130895E2
:10272000CF93DF9300D000D01F92CDB7DEB70F90CC
:102730000F900F900F900F90DF91CF910895CF934E
:10274000DF9300D000D000D0CDB7DEB726960FB60D
:10275000F894DEBF0FBECDBFDF91CF9108950895ED
:1027600008950C94B0130C94B1130E94B3136093AA
:10277000C4017093C5018093C6019093C7010C9466
:102780004A130C94B5130F931F930091C401109139
:10279000C5012091C6013091C701602B712B822B9E
:1027A000932B1F910F910C94B5130F931F930091CE
:1027B000C4011091C5012091C6013091C701602369
:1027C0007123822393231F910F910C94B5130F93C0
:1027D0001F930091C4011091C5012091C601309151
:1027E000C70160277127822793271F910F910C94AF
:1027F000B5130C94B0130E94F9136093C001709349
:10280000C1018093C2019093C3010C944A1360E00C
:1028100070E0CB010C94FB130F931F9341E050E049
:1028200060E070E08A019B0104C0000F111F221FAD
:10283000331F8A95D2F7C901B8011F910F910C94EB
:10284000FB130F931F9341E050E060E070E004C081
:10285000440F551F661F771F8A95D2F78091C001DC
:102860009091C101A091C201B091C3018A019B0165
:10287000082B192B2A2B3B2BC901B8011F910F9153
:102880000C94FB130F931F9341E050E060E070E065
:1028900004C0440F551F661F771F8A95D2F74095D5
:1028A0005095609570958091C0019091C101A09163
:1028B000C201B091C3018A019B01082319232A2375
:1028C0003B23C901B8011F910F910C94FB130F9387
:1028D0001F9341E050E060E070E004C0440F551FDA
:1028E000661F771F8A95D2F78091C0019091C10130
:1028F000A091C201B091C3018A019B010827192749
:102900002A273B27C901B8011F910F910C94FB1393
:102910000F931F930091C0011091C1012091C2013A
:102920003091C301602B712B822B932B1F910F9140
:102930000C94FB130F931F930091C0011091C101E0
:102940002091C2013091C30160237123822393231C
:102950001F910F910C94FB130F931F930091C001D3
:102960001091C1012091C2013091C30160277127EC
:10297000822793271F910F910C94FB13089524E055
:10298000929F900D1124890FE82FE695E695E69524
:10299000877051E001C0550F8A95EAF785E0E89FFE
:1029A000F0011124EF54FE4F20E030E070E0408150
:1029B000CB01022E02C0969587950A94E2F78170AA
:1029C000819584278523842781932F5F3F4F25306E
:1029D000310569F7089524E0929F900D1124890F25
:1029E000682F669566956695982F977085E0689F25
:1029F000B001112440E050E080E0FB01E40FF51F3E
:102A0000EF54FE4F208130E0092E02C03695279505
:102A10000A94E2F721703327042E01C0220F0A9492
:102A2000EAF7822B4F5F5F4F4530510531F708952C
:102A3000BF92CF92DF92EF92FF920F931F93CF93AB
:102A4000DF938C01C090C001D090C101E090C20121
:102A5000F090C3018091C4019091C501A091C6017D
:102A6000B091C701C82AD92AEA2AFB2ACFE1D0E0CF
:102A7000D701C6010C2E04C0B695A79597958795EA
:102A80000A94D2F780FD04C0219790F7B12C07C0BB
:102A9000BC2EB8018C2F0E94EC1C0197A9F38B2D42
:102AA000DF91CF911F910F91FF90EF90DF90CF902A
:102AB000BF900895CF93DF93EC010E941815BE01DB
:102AC0000E94EC1CDF91CF9108951F93CF93DF9369
:102AD000EB019091B001992321F0CB010E945A158E
:102AE00013C0882349F0CB010E941815182F682FB6
:102AF000CE010E94BF1404C0CB010E94EB14182F1A
:102B0000BE01812F0E94EC1CDF91CF911F9108958F
:102B1000EF92FF920F931F93CF93DF938C01892B3A
:102B200009F46CC0F12CEE24E394E8012196F8013D
:102B30008491843740F4843008F051C0813081F0B2
:102B4000823019F15BC0853709F444C0A8F19CE7D5
:102B5000980F903708F052C08F770E94961041C0AE
:102B60000E5F1F4FFE01849190E2980F983050F451
:102B70008770FE2D01C0FF0F8A95EAF78F2F0E9404
:102B8000691914C00E9448102DC00E5F1F4FFE012E
:102B9000849190E2980F983060F48770FE2D01C008
:102BA000FF0F8A95EAF78F2F0E946F190E949819DC
:102BB00019C00E94961016C00E5F1F4FFE01C491EF
:102BC000CC2381F08FE99FE00197F1F700C000006E
:102BD000C150F6CF0E5F1F4FFE01F49003C00E945C
:102BE00048108E018F2D882309F49FCFEFE9FFE075
:102BF0003197F1F700C000008150F5CFDF91CF9100
:102C00001F910F91FF90EF9008951F93CF93DF9343
:102C1000C091C80116E08091C901C81799F0D0E0B1
:102C20001C9FF0011D9FF00D1124E653FE4F4081C3
:102C3000518162817381848195810E949F132196C5
:102C4000C770E9CFDF91CF911F9108954091FA01AC
:102C50005091FB016091FC017091FD018091FE019A
:102C60009091FF010C949F130F931F93CF93DF93C9
:102C70008091FF0182958F7009F05DC08091FC0109
:102C8000882309F458C08091C8011091C90160914E
:102C9000FA017091FB01C091FD01D091FE0191E01C
:102CA0006F3F09F090E0292F06E0811709F443C037
:102CB000209721F07F3F21F030E003C031E001C0D8
:102CC000322F90E030FD34C0089FF001099FF00DD5
:102CD0001124DF01A653BE4F11963C911197371373
:102CE00027C03C91361324C012963C9112973111A3
:102CF0001FC013964D915C9114974C1B5D0B483C83
:102D00005105B0F48091FF018F7080618093FF01C5
:102D1000E153FE4F80818F70806180838AEF91E064
:102D20000E941A13DF91CF911F910F910C940516F9
:102D300001968770BACFDF91CF911F910F910895BF
:102D40009F92AF92BF92CF92DF92EF92FF920F933A
:102D50001F93CF93DF93CDB7DEB761970FB6F8948B
:102D6000DEBF0FBECDBF8C0185E0F801DE011D96F0
:102D700001900D928A95E1F7F801E2809091FA01B5
:102D80006091FB012091FD013091FE01211531057B
:102D900031F06F3F31F481E09F3F19F403C081E0CF
:102DA00001C080E0F82FF1709F2E80FD3FC1F80137
:102DB00040815181A380B4808AEFC82E81E0D82E53
:102DC000F090FC01F501E21BF30BFF2009F4D9C0E0
:102DD0008091FF01E83CF10508F095C0282F207F85
:102DE00009F052C0561313C0491311C0FE2CE11054
:102DF0000EC08F7080618093FF010E942616C6016D
:102E00000E941A138091FF01F80185834CC1AB2801
:102E100031F05F3F31F481E04F3F19F403C081E0AE
:102E200001C080E080FD03C081E08E2502C080E00B
:102E300090E0F82FF170FF2E80FF1CC08091C80138
:102E40002091C90136E0821709F40BC190E0389F48
:102E5000F001399FF00D1124E653FE4F61815613A6
:102E600006C06081461303C06281E61203C001966A
:102E70008770E9CFFE2CEE2009F415C18091FF0187
:102E800081608093FF0154C0561306C0491304C0EB
:102E9000E11002C0F80199C0C8010E94881388237C
:102EA00061F1EE2051F12091FF01822F82958F7008
:102EB00090E0029774F08091FA019091FB0198875D
:102EC0008F831986BB86AA862C87CE0107960E941F
:102ED0001A1386E0F801AAEFB1E001900D928A95ED
:102EE000E1F70E9434160E9426160AC0561711F107
:102EF000C8010E94881381112CC0C8010E941A13B6
:102F0000FF24F394D0C0282F207F81F77A2DB98A2F
:102F1000A88A6E2D89890E9490138AEF91E00E9401
:102F20001A1386E0F60111928A95E9F70E94261697
:102F3000F12CB9C04913DCCFE110DACFF801858359
:102F4000C8010E941A1386E0F60111928A95E9F7EA
:102F5000AAC0EE2091F22091FF01822F82958F70FE
:102F600090E002970CF4B5CF8091FA019091FB01AB
:102F70009A8389831B82BD82AC822E83CE01019607
:102F8000A6CFE83CF10508F044C0FE2CEE2009F481
:102F9000B4CF561330C049132EC02091FF0120FD3D
:102FA00021C0822F82958F70482F50E04115510526
:102FB000C9F0F80125834F30510541F08F5F982FFC
:102FC0009295907F822F8F70892B8583C8010E94F4
:102FD0001A1386E0F801AAEFB1E001900D928A95EC
:102FE000E1F73CC086E0F801AAEFB1E001900D9254
:102FF0008A95E1F758C0C8010E948813811169CFF2
:103000008091FF0181608093FF01C8010E941A1323
:103010004AC07A2DB98AA88A6E2D89890E94901398
:1030200086E0F60111928A95E9F718C0EE2009F4BE
:1030300064CFC8010E948813F82E882309F45DCF5D
:1030400086E0F801AAEFB1E001900D928A95E1F7D0
:103050008AEF91E00E9442100E9434160E942616C8
:1030600022C04D875E878D859E850E945A15292F27
:1030700022952F70223028F49F7039F0811105C0FD
:103080000BC0243028F49F7049F4805E883020F013
:10309000C8010E941A139F2CF92C05C0F8019581D4
:1030A000907F99F7F9CF8F2D61960FB6F894DEBF18
:1030B0000FBECDBFDF91CF911F910F91FF90EF9089
:1030C000DF90CF90BF90AF909F9008951F93CF93C4
:1030D000DF93CDB7DEB72C970FB6F894DEBF0FBEE7
:1030E000CDBF4F83588769877A878B879C87CE01AE
:1030F00007960E94A0168823D1F09F8188852A8593
:103100003B85232B31F08F3F31F481E09F3F19F451
:1031100003C081E001C080E080FD47C04F81588539
:1031200069857A858B859C850E949F133EC086E0C9
:10313000FE013796DE01119601900D928A95E1F716
:10314000FF81E8856A857B856115710531F0EF3F68
:1031500031F481E0FF3F19F403C081E001C080E059
:1031600080FD23C02091C90130E0C901019687701C
:1031700099274091C80150E084179507F1F1F98330
:10318000EA837D836C8396E0929FD001939FB00D7C
:103190001124A653BE4FFE01319601900D929A95CF
:1031A000E1F78093C9010E94051616E08091C801DD
:1031B0009091C901891771F1189FC001112486539C
:1031C0009E4F0E94A016882329F1E091C8011E9FFE
:1031D000F0011124E653FE4F4081518162817381D9
:1031E000848195810E949F138091C80190E001968F
:1031F000877099278093C801D9CF0E9460131092DD
:10320000C9011092C801EAEFF1E086E0DF011D92EA
:103210008A95E9F72C960FB6F894DEBF0FBECDBFA6
:10322000DF91CF911F91089580910002859585953A
:10323000859508958091000287700895909100020D
:10324000977081E009F480E0089590917B0292FBF1
:10325000222720F9281751F080FB92F990937B02E6
:1032600080917A0290917B020C94291A08958091A2
:103270007B0282FB882780F991E089270C9425192D
:1032800081E00C94251980E00C94251980910C02A2
:10329000089590910C02892B80930C0208958095DB
:1032A00090910C02892380930C02089510920C02D5
:1032B000089590910B02892B80930B0208958095BD
:1032C00090910B02892380930B02089510920B02B8
:1032D000089590910A02892B80930A02089580959F
:1032E00090910A02892380930A02089510920A029B
:1032F000089580910102089508950C947C190C940E
:103300007D1990917B0292FD08C09091010298175F
:1033100021F0809301020C947F190895809101029D
:10332000882329F01092010280E00C947F190895FF
:10333000E0910001F091010180910C028083E09105
:103340000001F0910101908180910B02892B808313
:10335000E0910001F0910101908180910A02892B96
:10336000808380910102882381F0E0910001F09137
:1033700001019081892B808380910001909101014E
:103380000E94DC2781110E948E198091000190918A
:1033900001010C94A5270C947C1990917B0292FD5D
:1033A00010C098E0899F90011124262B20930002E1
:1033B0000E942114809100028595859585950C9435
:1033C000CB190C9421141092000280E00C94CB19BC
:1033D000209100028095822380930002982F97709D
:1033E00041F430E0482F082E000C550B2417350708
:1033F00021F490917B0292FF07C085958595859574
:103400000E9442140C94E319089580E090E00E9419
:10341000FE3421E0893E9E4F09F020E0822F08957E
:1034200082E090E00C94F63483E090E00C94F63463
:10343000CF9384E090E00E94F634C82F82E290E0BF
:103440000E94F6342C2F30E0A901582BCA01CF91ED
:103450000895CF93C92F682F84E090E00E9404352F
:103460006C2F82E290E0CF910C940435AB01BC014B
:103470008FE090E00C941635AB01BC0183E190E045
:103480000C94163560E070E0CB010C943C1A60E0BF
:1034900070E0CB010E94361A0C94421A69EE7EEF5E
:1034A00080E090E00E94223560E082E090E00E949F
:1034B000043560E083E090E00E9404351092C4017E
:1034C0001092C5011092C6011092C70160E084E01D
:1034D00090E00E94043560E082E290E00E940435B2
:1034E00060E085E090E00E94043560E086E090E0D6
:1034F0000E9404356FEF87E090E00E94043540E0C1
:1035000050E0BA0188E090E00E94163560E08DE05E
:1035100090E00E94043540E050E0BA0188E190E07C
:103520000E94163560E087E190E00E94043540E09B
:1035300050E0BA018CE190E00E94163560E070E046
:1035400080E290E00E94223540E050E0BA0188E13C
:1035500090E00E9416350C94471A0C944E1A682F6E
:103560008EE090E00C9404350E94BD2860931A020E
:1035700070931B0280931C0290931D0260931602AD
:1035800070931702809318029093190208950E9475
:10359000BD2860931A0270931B0280931C029093C3
:1035A0001D02609312027093130280931402909391
:1035B0001502089585B7806885BF85B7806885BF87
:1035C000089581E008950C94E11A08950C94E51A89
:1035D0000C94E51A0C94E81A0C94E51A0C94EC1A65
:1035E0000C94E51A0E94DA1A88EC9DE10E942B29BE
:1035F0000E94F01A0C94EE1A0E94E61A0C94E51A36
:103600000E94A8280E94A81E80E00E944E210E94CD
:1036100006200C94EA1A8F929F92AF92BF92CF929B
:10362000DF92EF92FF920F931F93CF93DF93CDB76B
:10363000DEB72A970FB6F894DEBF0FBECDBF0E944B
:10364000C01E982E81110E94B41A8EE0A82E82E02E
:10365000B82E00E010E0802E802F0E94EF1DD82EA3
:10366000F501C1905F01C826B1F40F5F1F4F043010
:10367000110589F78FEF89838A831B820E94B12805
:103680008160782F9D838C8349815A816B818D81E4
:103690000E94F80F2FC080911E0281FD0E94F51D2F
:1036A000E12CFF24F3948C2D8F21F1F00E94E31A7A
:1036B000882399F0EE828F82DF2081E009F480E098
:1036C00088870E94B1288160782F9A8789874E81E8
:1036D0005F8168858A850E94F80FF801E25FFD4FDF
:1036E0008081F826F08206C0E394FF0CF5E0EF122B
:1036F000DACFBBCF0E946A20182F81110E94C71A0F
:103700000E942C24911001C011110E94EE220E94EF
:10371000962790910D028917C1F00E9496278093F9
:103720000D022A960FB6F894DEBF0FBECDBFDF9113
:10373000CF911F910F91FF90EF90DF90CF90BF90AE
:10374000AF909F908F900C94EF0F2A960FB6F8943D
:10375000DEBF0FBECDBFDF91CF911F910F91FF90C4
:10376000EF90DF90CF90BF90AF909F908F90089593
:1037700080E090E00895089524E1829FC001112423
:10378000FC0125E0729FE00DF11D1124E60FF11DF3
:10379000EE0FFF1FE751FB4E859194910895880F1E
:1037A000991FFC01E757FA4E859194910895CF93A4
:1037B000DF930E94F11CEC01811520E5920708F0CF
:1037C00041C0811540E4940708F0CBC0803E9105CC
:1037D00020F5803C910508F0B8C0883A910570F456
:1037E000853A910508F0A8C08130910509F4A1C07F
:1037F00008F4EBC0049708F0EBC0E7C08F3B9105DD
:1038000008F0E3C0885AC82FD0E0CC0FDD1FC25BA0
:10381000DE4F888199819464DCC0811550E2950760
:1038200050F4C11581E0D80708F0D2C0C83ED105D8
:1038300008F4CEC0CAC0811520E3920708F08AC000
:103840009F7085C0811545E5940708F046C0811535
:1038500054E5950708F09DC0C11582E5D80718F515
:10386000C11521E5D20708F07FC0CE01F4E096959E
:103870008795FA95E1F7282F23703C2F337081E06C
:1038800090E002C0880F991F3A95E2F79C68922B4E
:103890002C2F2F702695269540E2249F900111240D
:1038A000822B932B96C09E01237033279C2F9695D5
:1038B0009695C115D34508F05CC041E050E002C0C8
:1038C000440F551F2A95E2F780E2989F900111243A
:1038D000CA01822B932B9C687CC0811559E5950702
:1038E00098F4C11588E5D80708F058C0C11526E539
:1038F000D20708F06AC08C2F0E94851D8F7190E05E
:10390000982F8827906265C081154AE5940708F4CE
:103910004AC090568115904208F057C08D2F8F7184
:103920000E94851D9E01332730628F71A901582B9B
:103930004AC081E090E04DC0855AC82FD0E0C458FD
:10394000DE4F888190E0906444C0805C91090E94C1
:10395000CF1B3FC09927D3FF02C0986C3AC0906C30
:1039600038C09F70906A35C09C2F8827816F906AFD
:1039700030C041E050E002C0440F551F2A95E2F7E5
:1039800080E2989F90011124CA01822B932B9A68A0
:1039900020C0982F8827846F906A1BC09C2F88278F
:1039A000806F906A16C08F700E94851D9E0194E002
:1039B000369527959A95E1F72F7030E0322F222720
:1039C0003069A901482BCA0104C080E090E001C021
:1039D000CE01DF91CF9108950E94BC1B0E94D71B9E
:1039E00008958238910569F1B0F48133910509F4A5
:1039F0006DC048F48932910509F463C08A3291059B
:103A000009F469C008958533910509F455C08933D7
:103A10009105B9F00895833E910569F138F4803E2F
:103A20009105B1F0823E910509F10895863E910518
:103A3000A9F1873E9105B9F1843E910509F064C072
:103A400023C020917A0220FD4FC021FD4DC0089572
:103A500080917A0280FD44C080917B0280FF44C047
:103A600080917A0284FD42C083EE4DC080917A023B
:103A700082FF38C0F5CF80917A0282FD33C08091F9
:103A80007B0280FD31C0ECCF80917B0281FF32C090
:103A900080917A0284FD2AC087EE35C080917A0237
:103AA00083FF26C0F5CF80917A0283FD21C08091EB
:103AB0007B0281FD1FC0ECCF80917A0285FD1CC086
:103AC0001DC080917A0285FD19C016C080917A02CE
:103AD00086FD16C017C080917A0286FD13C010C003
:103AE00089E311C082EE0FC080EE0DC080E00BC0F4
:103AF00086EE09C084EE07C089E205C085E303C0F5
:103B00008AE201C081E390E0089590917A0292FFE9
:103B10000DC0282F2871283019F4877F846006C0D3
:103B2000282F2471243011F48B7F886093FF0DC0FF
:103B3000282F2871283119F4877E846106C0282F28
:103B40002471243111F48B7E886120917B0220FF47
:103B50000DC0382F3871383019F4877F816006C066
:103B6000382F3171313011F48E7F886021FF0DC004
:103B7000282F2871283119F4877E816106C0282FEB
:103B80002171213111F48E7E886194FD877E089524
:103B900080E0089508950E94051A811102C00E94D4
:103BA000AD1A0E94101A80931E020E94181A909358
:103BB0007B0280937A020E94CA1D0E94141A682F09
:103BC00070E080E090E00E94C1136091C0017091AC
:103BD000C1018091C2019091C3010C94F913E82FA7
:103BE000F0E0E058FD4F80810895089580EA8A95BD
:103BF000F1F7089500C008950C94F61D08950C94F3
:103C0000FE1D0C94FF1D0C94FE1D0C94031EF894D5
:103C1000E82FE295EF70F0E031A1282F2F7081E0BE
:103C200090E001C0880F2A95EAF7982F909593238A
:103C300091A392A1892B82A3789408950F931F9347
:103C4000CF93DF93C4E8D1E089918F3F11F00E94B8
:103C5000071E81E0C838D807B9F7CFE7D1E004E8FC
:103C600011E089918F3F11F00E94071E0C171D076C
:103C7000C1F7DF91CF911F910F910895CF92DF92FD
:103C8000EF92FF920F931F93CF93DF938C01C62F78
:103C9000D0E0CE018C579E4F7C01FC0190819F3F6C
:103CA00009F44DC0D62EF894E92FE295EF70F0E0BC
:103CB00081A19F7021E030E001C0220F9A95EAF7C0
:103CC000822B81A382A12095282322A378940E948D
:103CD000FA1DEFE7F1E020E030E0C12C51E0419126
:103CE0004F3FB1F0A42FA295AF70B0E090968C91A9
:103CF00090E04F7002C0959587954A95E2F780FD58
:103D000007C0852F022E01C0880F0A94EAF701C070
:103D100080E0C82A2F5F3F4F2530310501F7F701BA
:103D200080818F3F11F00E94071E61E0C11001C029
:103D300060E08D2D0E94FC1DC00FD11FC882DF9155
:103D4000CF911F910F91FF90EF90DF90CF9008954A
:103D50000E941E1EACE7B2E01C92E0E8F2E0108286
:103D600011961C921197118212961C921297128230
:103D700013961C92138284E00E94021F0C94730F0E
:103D80001F93CF93DF9300D000D0CDB7DEB7198259
:103D90001A821B821C8210E0612FCE0101960E94C4
:103DA0003E1E1F5F1430C1F744E050E0BE016F5F5C
:103DB0007F4F8CE792E00E94363211E0009709F4C1
:103DC00010E0892B61F089819A81AB81BC8180935D
:103DD0007C0290937D02A0937E02B0937F02212FFC
:103DE00044E060E872E08CE792E00E94031F0E94CA
:103DF000790F812F0F900F900F900F90DF91CF913F
:103E00001F9108950895FF920F931F93CF93DF930F
:103E10008C01F62ED72FC42F222349F081E0809306
:103E200021020E94B1289093200280931F0280916A
:103E300021028823C1F080911F02909120020E94EC
:103E4000C928059780F0EF2DFD2FD8014C2F50E0A9
:103E5000CD01801B910B841795071CF48D918193E4
:103E6000F7CF10922102DF91CF911F910F91FF9018
:103E700008950E9429280E946E2A0E94872A0E9483
:103E8000992A0E94FC1AFBCF8091240208959C017C
:103E90003056211540E2340748F0305E211540E1EC
:103EA000340720F0315C21153F4110F4992706C0FA
:103EB0008F3F910519F010F080E090E09C012450B4
:103EC00031092432310540F02752310981E02E308A
:103ED000310518F080E0089581E008950C94471FA3
:103EE000CF92DF92EF92FF92CF93DF930E946E1FEB
:103EF000882309F440C08091220290912302009708
:103F0000A1F10E94C9289C0140E050E060EE7EE2F1
:103F100080E090E00E94E631609124022F3F31055D
:103F200019F010F02FEF30E0C62FD0E02C1B3D0B26
:103F3000B90180E090E00E94763027EA39E747E453
:103F40005DE30E9445310E9430306B017C01BE016F
:103F5000DD0F880B990B0E947830A70196010E9413
:103F6000C42F0E944730609324020E94B12890938E
:103F7000230280932202DF91CF91FF90EF90DF9098
:103F8000CF900895CF92DF92EF92FF92CF93DF937D
:103F900080912202909123020E94C928893E934079
:103FA00060F160912402C62FD0E0662777276C1B52
:103FB0007D0B072E000C880B990B0E94783027EAA6
:103FC00039E747E45DE30E9445316B017C01BE01A6
:103FD000DD0F880B990B0E9478309B01AC01C70163
:103FE000B6010E94C42F0E944730609324020E94B1
:103FF000B1289093230280932202DF91CF91FF900A
:10400000EF90DF90CF9008950C94850EFF920F9360
:104010001F93CF93DF93C9E2D2E04AE951E028E948
:1040200031E061E070E0F2E0CB32DF0709F44CC030
:10403000FA010191AF01A02FA295AF70B0E0919667
:10404000EC9191970F70CB01002E01C0880F0A945C
:10405000EAF7982F90959E2391969C93919792962C
:104060009C919297892B92968C939297F90111913A
:104070009F01E12FE295EF70F0E0F1A01F70CB01FE
:10408000012E01C0880F0A94EAF7982F90959F217E
:1040900091A392A1892B82A390968C9190E002C06B
:1040A000959587950A95E2F78170E0A1F0E002C04E
:1040B000F595E7951A95E2F7E0FD02C090E001C0A2
:1040C00092E0892B8993AFCFDF91CF911F910F9110
:1040D000FF9008952F923F924F925F926F927F923E
:1040E0008F929F92AF92BF92CF92DF92EF92FF9208
:1040F0000F931F93CF93DF9389E2682E82E0782E8F
:104100009AE9E92E91E0F92E08E911E027E2822EE2
:1041100022E0922EC5E2D2E063015301312C212C22
:1041200034E0432E512CD501ED915D014E2F440F0B
:10413000440FF60141936F01D7012D917D01E22FCC
:10414000E295EF70F0E080A190E02F7002C09595AD
:1041500087952A95E2F781709927F80151918F018F
:10416000E52FE295EF70F0E020A130E05F7002C033
:10417000359527955A95E2F7F901E170FF2720FF61
:1041800002C0E2E0F0E0E82BF92BE42BD301ED9341
:104190003D01EF70F0E0E857FE4F9081F40180811F
:1041A000890F808384304CF088818F5F888360E042
:1041B000832D0E94042021E001C020E0D4018C91D5
:1041C0008D3F44F488818150888361E0832D0E9473
:1041D000042021E0F4018081082E000C990BB2012B
:1041E0000E94D231D4018D934D01222A339421961D
:1041F000B2E03B1298CF822DDF91CF911F910F91AA
:10420000FF90EF90DF90CF90BF90AF909F908F90F6
:104210007F906F905F904F903F902F900895EF9216
:10422000FF920F931F93CF93DF93EC017B0164E622
:1042300070E088E70E9488268C01EC0EFD1ECE15EA
:10424000DF0561F017FD0AC0FE01849164E670E0AD
:104250000E9409278C012196892B89F30E948D27C2
:10426000C801DF91CF911F910F91FF90EF900895BA
:104270000895E4E8F2E080E092E0DF019C011D9205
:1042800021503040E1F7F0938904E09388048FEFE8
:104290009FEF909357028093560208950E94382111
:1042A0008093520280FD02C080E801C080E28093CA
:1042B00051020E9482266DE070E080EA95E10E9442
:1042C0000F21892B11F080E008958091520263E064
:1042D00070E081FD03C08DE995E102C08AE995E1B6
:1042E0000E940F21892B79F76DE070E08DE895E150
:1042F0000E940F21892B39F70E94BD28DC01CB01D8
:10430000805A9541AF4FBF4F8093840490938504AA
:10431000A0938604B09387040E94392181E08093A2
:104320005502809354021092530208952091510235
:1043300036E0839FC0011124629F800D911D1124DE
:10434000811522E0920714F080E090E08C579D4F99
:104350009093890480938804089520918804309173
:1043600089042E57324040915102642F70E0C901F8
:104370000E94BE31481B463010F4240F311D211518
:1043800082E0380710F020E030E02C573D4F3093AA
:104390008904209388040895CF93DF938A3011F421
:1043A00081E003C08D3029F480E0DF91CF910C943F
:1043B0004222C62F682F809188049091890426E0BC
:1043C000FC01ABE2B2E001900D922A95E1F7603E6C
:1043D00030F026E0FC0111922A95E9F70AC0F6E0D8
:1043E0006F9FB001112463557A4E46E050E00E9461
:1043F0002D32C11135C0C0918804D091890446E0A6
:1044000050E0BE018BE292E00E943632892BB1F17E
:10441000C458D2409E0185E0369527958A95E1F7EC
:1044200081E090E0AC0102C0440F551F2A95E2F7ED
:104430002091560230915702242B352B259645E0CA
:10444000D695C7954A95E1F702C0880F991FCA957E
:10445000E2F7822B932B90935702809356020EC063
:10446000E0918804F09189049F012A5F3F4F2E1745
:104470003F0709F2808180958193F9CFDF91CF9139
:104480000C94AD21CF93E82F2091880430918904BA
:104490002458324040915102642F70E0C9010E94BB
:1044A000BE31481B842FEE2359F066E00E94B231E2
:1044B000C82FC150B0F060E080E20E94CC21F9CF5B
:1044C000A901480F511D4115524018F080E020E02D
:1044D00030E0280F311D2C573D4F30938904209335
:1044E0008804CF910895FF920F931F93CF93DF938A
:1044F000EC01F62EFC0101900020E9F78F0101503C
:104500001109C017D10728F46F2D89910E94CC2181
:10451000F8CFDF91CF911F910F91FF9008951F93D6
:10452000CF93DF93EC01162FFE018491882329F0AD
:10453000612F0E94CC212196F7CFDF91CF911F915F
:104540000895EF92FF920F931F93CF93DF932091E3
:1045500088043091890424583240A901460F571F1E
:104560004130524020F060E072E0621B730BC0915A
:104570005602D0915702D901AC57BD4FA901620F25
:10458000731F01E010E046175707E8F4FA01E21B39
:10459000F30BE80FF91FE491FC91EF1781F0EC9316
:1045A000FA01689414F8F695E7951694E1F7780106
:1045B00002C0EE0CFF1CEA95E2F7CE29DF294F5F1F
:1045C0005F4F1196E0CFD0935702C0935602DF9110
:1045D000CF911F910F91FF90EF9008958091550218
:1045E0008823F9F00E94BD28DC01CB01805A954157
:1045F000AF4FBF4F8093840490938504A0938604AB
:10460000B09387048091540281110BC062E070E086
:104610008BE895E10E940F21892B19F481E08093AA
:1046200054028091540208956F927F928F929F92CC
:10463000AF92BF92CF92DF92EF92FF920F931F93B0
:10464000CF93DF9380915502882309F4DCC0209139
:104650005602309157022115310509F4D4C08091DA
:1046600053028111D0C061E070E0082F10E03B01DF
:10467000082E02C0660C771C0A94E2F7A9014621B5
:104680005721452B11F48F5FF0CF90915202980182
:1046900065E0220F331F6A95E1F790FD12C0829505
:1046A000880F807680930401220F232F221F330B63
:1046B000319520930701815E8093050110920801D6
:1046C00012C045E0369527954A95E1F7220F220F53
:1046D000220F2093040110920701295F2093050106
:1046E00083E08093080124E630E047E050E062E098
:1046F00071E088E70E943927892B09F084C08091F6
:10470000520280FD23C0A80195E0440F551F9A95E1
:10471000E1F74C575D4F04E610E020E230E060E442
:1047200088E70E946027892B09F06DC00E94EE2265
:10473000E301C095D0958091560290915702C8230D
:10474000D923D0935702C09356025DC080E2E1E3C3
:10475000F2E0DF011D928A95E9F785E0000F111F55
:104760008A95E1F7A0EAB1E04CE951E099249394ED
:104770002D91EA018991AE01B801680F711D6C5746
:104780007D4F30E02F5C3D4FF90197E07F01E21A49
:10479000F30AA92C01C0AA0CEA94EAF77B01B12C18
:1047A000E70189917E018A21892E8B18D82DD77037
:1047B000CD2E0D2E000CDD08C82F01C0CC0FDA95D0
:1047C000EAF7D194C194D108D7E0CD22DD2401C00D
:1047D0008695CA94EAF78C2BD0808D298083B39478
:1047E00088E0B812DDCF915031969F3F79F6C1E055
:1047F000A43ABC0709F0BCCF04E610E020E230E0A8
:1048000041E352E08CCFDF91CF911F910F91FF9048
:10481000EF90DF90CF90BF90AF909F908F907F9060
:104820006F9008958091550290915402882389F0E9
:10483000992369F062E070E089E895E10E940F2118
:10484000892B19F08091540208951092540290918E
:10485000540281E0892708950F931F938091550298
:10486000882329F160E080E00E9496210E94980E42
:104870000E941423809154028823C9F00E94BD280D
:10488000009184041091850420918604309187045E
:10489000DC01CB01801B910BA20BB30B8F3F9F4F11
:1048A000AF4FBF4720F41F910F910C9412241F911A
:1048B0000F9108950F931F93CF93DF93C42FD22F9F
:1048C000FC0182818823C9F040935A020E94B128DA
:1048D000909359028093580280E28C0F883008F040
:1048E00057C0C77081E001C0880FCA95EAF7DF9111
:1048F000CF911F910F910C94E21080915A024813AE
:1049000030C080915802909159020E94C928883C79
:10491000910538F510E21D0FCD17B9F080E28C0F2C
:10492000883040F4C77081E001C0880FCA95EAF76B
:104930000E94E910183028F581E09D2F977001C082
:10494000880F9A95EAF70E94E210802F0E94D910F2
:104950001830F0F4D77081E001C0880FDA95EAF7DB
:104960000AC080E28C0F883098F4C77081E001C0E3
:10497000880FCA95EAF7DF91CF911F910F910C94A0
:10498000E910802FDF91CF911F910F910C94D910D6
:10499000DF91CF911F910F9108950F939C01CB014F
:1049A000243F4CE5340731F188F4293DFCE53F070D
:1049B000D9F02A3D4CE5340779F1283D3C45A9F56D
:1049C00006E221EE41EE68ED7CE52BC0263FFCE5DA
:1049D0003F07E1F0A8F0273F3C4539F507E225EE17
:1049E00046EE67EF7CE51DC007E225EE45EE69ED7A
:1049F0007CE517C006E221EE40EE64EF7CE511C0D5
:104A000007E225EE44EE65EF7CE50BC006E221EE01
:104A100042EE66EF7CE505C008E221E045EE6AED76
:104A20007CE50E945A2480E008C0FC018281882332
:104A300019F010925A0201C081E00F910895CF93AE
:104A4000DF93EC01FB018281882309F426C1C43085
:104A5000FDE5DF0760F4CB3F9CE5D90768F49E01D4
:104A600022503C452431310508F018C105C0C2363A
:104A7000EDE5DE0709F012C10E94181A90937B023F
:104A800080937A02C031FCE5DF0709F4CAC008F060
:104A900041C0C8309CE5D90709F4A4C0F0F4C43083
:104AA000FCE5DF0709F48CC068F4C2309CE5D90747
:104AB00009F482C0C330DC4509F0E5C080917A0278
:104AC0008260DFC0C630FCE5DF0709F483C008F070
:104AD00085C080917A028860D4C0CC309CE5D9072B
:104AE00009F490C068F4CA30FCE5DF0709F47EC021
:104AF00008F084C00E94601380917A028068C1C06F
:104B0000CE309CE5D90709F481C008F086C08091B9
:104B10007A0294C0CD3FFCE5DF0709F47BC038F58D
:104B2000C4319CE5D90709F49AC058F4C231FCE5B8
:104B3000DF0709F47AC008F07EC080917A028F7B8B
:104B4000A0C0CB3F9CE5D907F1F108F03FC0C531CB
:104B5000DC4509F098C080917A0282FB222720F977
:104B600091E0922790FB82F990FB83F98AC0C130D3
:104B70008DE5D80709F467C050F480917B02CF3FE0
:104B8000ECE5DE07C1F108F05BC08D7F65C0C33086
:104B90008DE5D80709F471C008F46DC0C236DD4553
:104BA00009F071C080917A0284FB222720F991E0FC
:104BB000922790FB84F965C080917A02816061C080
:104BC00080917A0216C080917B0216C080917B0290
:104BD000826042C080917A02806153C080917A02E3
:104BE00080624FC080917A0280644BC080917A02CB
:104BF0008860846046C0826081602EC080917A02A5
:104C00008E7F3FC080917A028D7F3BC080917A0277
:104C1000877F37C080917B0214C080917A028F7E9B
:104C200030C080917A028F7D2CC00E9460138091E9
:104C30007A028F7726C080917A02877F8B7F21C08E
:104C40008D7F8E7F09C080917B02982F9095917007
:104C50008E7F892B90FB81F980937B0214C00E9488
:104C6000601380917A0287FB222720F991E0922736
:104C700090FB87F906C081E001C080E00E94AF1A76
:104C800002C080937A0280917A0290917B020E9406
:104C9000291A0E94601380E001C081E0DF91CF916A
:104CA0000895CF93DF9386319C4541F5EB010E9437
:104CB0004619982F8A8120910001309101018823A3
:104CC00079F09A7A81E009F480E080935B02911197
:104CD00002C069E201C065E3C9010E941E280AC042
:104CE00080915B02811102C069E201C065E3C901E4
:104CF0000E9420280E94981980E001C081E0DF9185
:104D0000CF9108951092B9008CE08093B800089577
:104D10009F92AF92BF92CF92DF92EF92FF920F934A
:104D20001F93CF93DF93B82EEB010E94B1286C0143
:104D3000C431D10558F0CF3F8FEFD80759F0CE01DD
:104D400064E170E00E94BE317B0107C0EE24E39471
:104D5000F12C03C025E0E22EF12C84E8A82E94EA81
:104D6000992E1092BC009092BC000E94B1288C0138
:104D70008091BC0087FD08C00E94B128801B910B68
:104D80008E159F05A8F32AC08091B900887F8830CE
:104D900041F08091B900887F803119F00FEF1FEF4B
:104DA0001FC0B092BB00A092BC000E94B1288C0131
:104DB0008091BC0087FD08C00E94B128801B910B28
:104DC0008E159F05A8F30AC08091B900887F8831AD
:104DD00011F0803419F700E010E00EC00EEF1FEF65
:104DE000CF3F8FEFD80709F4BCCFC6010E94C92876
:104DF0008C179D0708F4B5CFC801DF91CF911F91A3
:104E00000F91FF90EF90DF90CF90BF90AF909F9069
:104E100008950F931F93CF93DF93EB018093BB0013
:104E200084E88093BC000E94B1288C018091BC0072
:104E300087FD0EC0CF3F8FEFD807C1F30E94B12886
:104E4000801B910B8C179D0788F38EEF9FEF0CC092
:104E50002091B900287F81E090E0283211F480E0B1
:104E600090E0919581959109DF91CF911F910F91DC
:104E70000895CF92DF92EF92FF920F931F93CF93FB
:104E8000DF936B018A017901B9010E948826E6014E
:104E90000C0D1D1DC017D10761F424E92093BC003F
:104EA000DF91CF911F910F91FF90EF90DF90CF9006
:104EB000089597FDF2CFB70189910E940927EACFA3
:104EC000CF92DF92EF92FF920F931F93CF93DF93D6
:104ED000C62F6A017901B8010E94882697FD11C08A
:104EE000B8018C2F0E940927E601EC0CFD1CCE15A1
:104EF000DF0539F097FD05C0B80189910E940927A7
:104F0000F6CF24E92093BC00DF91CF911F910F9140
:104F1000FF90EF90DF90CF90089584E98093BC00DC
:104F2000089590936102809360020895E091600279
:104F3000F0916102309721F00190F081E02D099409
:104F400080E008950E9496270895E0916002F09114
:104F50006102309721F00280F381E02D09940895D9
:104F600020915E0230915F022817390771F090930B
:104F70005F0280935E02E0916002F09161023097DF
:104F800021F00680F781E02D0994089520915C02BC
:104F900030915D022817390771F090935D0280937C
:104FA0005C02E0916002F0916102309721F0008490
:104FB000F185E02D09940895FC01329697E080E098
:104FC000915029F021912223D9F38F5FF9CF0895D1
:104FD000662349F0FC01329608962191621729F068
:104FE000E817F907D1F780E0089581E008959C0162
:104FF000FC0132969FEF80E04191461789F09F3F78
:1050000019F4411101C0982F8F5F8630A9F79F3F97
:1050100039F0F901E90FF11D97FDFA9562830895C2
:1050200008959C012A5F3F4FFC014281461301C055
:105030001282019682179307B9F708950C94F72707
:105040000C941128029626E0FC0111922A95E9F7AA
:105050000895089508950C942A280C942A28CF9333
:105060000E942D280E94C01E0E942B28C0E08C2F79
:105070000E94EF1D811104C0CF5FC430C1F701C091
:1050800081E0CF9108950C942A280C9443288091B4
:105090009204843049F10E94452880E00E94EF0F7D
:1050A0001092620220E488E190E00FB6F894A8958F
:1050B000809360000FBE2093600083B7817F84607F
:1050C00083BF83B7816083BF7894889583B78E7FD1
:1050D00083BF0FB6F894A895809160008861809393
:1050E0006000109260000FBE08950C942A280E9460
:1050F00060130E9496270E94EF0F0C9475281F9250
:105100000F920FB60F9211248F939F93AF93BF937B
:1051100080916202811113C080918A0490918B0466
:10512000A0918C04B0918D044196A11DB11D809376
:105130008A0490938B04A0938C04B0938D04BF9148
:10514000AF919F918F910F900FBE0F901F90189568
:1051500082E084BD93E095BD9AEF97BD80936E0089
:1051600008952FB7F89480918A0490918B04A091B0
:105170008C04B0918D042FBF08952FB7F8946091DF
:105180008A0470918B0480918C0490918D042FBFC0
:1051900008959C014FB7F89480918A0490918B04F4
:1051A000A0918C04B0918D044FBF821B930B089586
:1051B000CF92DF92EF92FF922FB7F894C0908A04BB
:1051C000D0908B04E0908C04F0908D042FBFA70149
:1051D0009601261B370B480B590BCA01B901FF90EA
:1051E000EF90DF90CF90089578941F920F920FB6B2
:1051F0000F9211248F939F93AF93BF9380918A0452
:1052000090918B04A0918C04B0918D040196A11D06
:10521000B11D80938A0490938B04A0938C04B09367
:105220008D04BF91AF919F918F910F900FBE0F9002
:105230001F90189587E797E79093010880930008DF
:105240009AE088E10FB6F894A895809360000FBEAD
:1052500090936000FFCF9093A5018093A4010895DF
:1052600080916E02089590919204943031F580936C
:105270006302709365026093640282E08093E900A8
:105280008FEF9091E800815095FD06C095ED9A95BD
:10529000F1F700008111F5CF8091E80085FF0DC086
:1052A00040E050E063E070E083E692E00E94252B4E
:1052B0008091E8008E778093E8000895BC0184E037
:1052C0000C943329BC0183E00C943329CF93DF93F2
:1052D00021E02093E9002FEF3091E800215035FDC7
:1052E00006C035ED3A95F1F700002111F5CF209178
:1052F000E80025FF14C0EC0140E050E068E070E0F9
:105300000E94252B8091E8008E778093E80088E04A
:10531000FE01A6E6B2E001900D928A95E1F7DF91D9
:10532000CF910895089580919104811109C00E9440
:10533000B62C0E94132D8091E20084608093E200DD
:10534000089510929104089508950895089542E0F3
:1053500061EC81E00E942F2C42E261EC82E00C942F
:105360002F2C80919404833009F460C030F4813094
:1053700071F0823009F499C008958A3009F485C02B
:105380008B3009F46BC0893009F0A7C020C0809130
:105390009304813A09F0A1C08091E800877F80934F
:1053A000E8008091970490919804892B21F468E09B
:1053B00086E692E003C060E080E090E070E00E944A
:1053C000702B8091E8008B778093E800089580919E
:1053D0009304813209F081C08091970490919804E0
:1053E000029708F07AC08091E800877F8093E800F8
:1053F0008091E80082FD05C0809192048111F8CF70
:105400006CC02091F3008091F20090E0922B029703
:1054100029F48091F1008B7F813021F48091F1009B
:1054200080936E028091E8008B7753C08091930443
:10543000813A09F052C08091970490919804892B89
:1054400009F04BC08091E800877F8093E80080914D
:10545000E80080FFFCCF8091130136C08091930457
:105460008132D9F58091970490919804892BA9F500
:105470008091E800877F8093E8000E94642C8091EF
:105480009504809313010C946013809193048132EE
:1054900021F58091E800877F8093E8000E94642CCA
:1054A0008091960480936F02089580919304813ACD
:1054B000A1F48091E800877F8093E8008091E80064
:1054C00080FFFCCF80916F028093F1008091E80013
:1054D0008E778093E8000C94642C089584B7877FBE
:1054E00084BF0FB6F894A89580916000886180937E
:1054F0006000109260000FBE90E080E80FB6F89454
:1055000080936100909361000FBE0C94F21A0E9488
:10551000B62C0E94132DE2EEF0E08081846080833F
:1055200078940E94A82F0E94001B89E091E00C94BF
:105530009127809192048530A9F48091920485305E
:1055400079F40E944728809190048823B1F30E9447
:105550002F28882391F30E940F2B0E946013EDCF18
:105560000E9477280C940B1B0C94B62A292F332702
:1055700023303105C9F060F42130310581F022304B
:10558000310509F044C08BE390E02BE13BE143C0DF
:1055900021323105E1F02232310549F138C082E192
:1055A00090E026E53BE137C099278130910549F02D
:1055B00028F0029761F5EDEEFAE105C0E7E1FBE1C5
:1055C00002C0EFEFFAE1849190E09F0124C06115E1
:1055D000710541F061307105D1F489E090E026E475
:1055E0003BE119C089E090E02DE23BE114C0611578
:1055F000710541F06130710551F482E390E028E6D5
:105600003BE109C080E490E02AE93BE104C080E08E
:1056100090E020E030E0FA0131832083089580E1BA
:1056200089BD82E189BD09B400FEFDCF8091D8001B
:105630008F7D8093D8008091E00082608093E000AD
:105640008091E00081FDFCCF0895CF92DF92EF9230
:10565000FF920F931F93CF93DF93EC018B017A019D
:105660000E94832C811133C0E114F10439F0F70159
:1056700080819181081B190BC80FD91FC12CD12C17
:105680000115110519F18091E80085FD16C0809182
:10569000E8008E778093E800E114F10449F0F70107
:1056A00080819181C80ED91ED182C08285E00FC051
:1056B0000E94832C882321F30AC089918093F100F2
:1056C00001501109FFEFCF1ADF0ADACF80E0DF9136
:1056D000CF911F910F91FF90EF90DF90CF900895A1
:1056E0002091990430919A042617370748F06115E4
:1056F000710539F42091E8002E772093E80001C06D
:10570000B901FC0120E06115710579F180919204E5
:105710008823F1F18530F1F18091E80083FD3CC0F0
:105720008091E80082FD2EC08091E80080FFEBCFE1
:105730002091F3008091F20090E0922B61157105A9
:1057400051F08830910538F421912093F100615097
:1057500071090196F3CF21E0089709F020E08091CC
:10576000E8008E778093E800CECF2111CFCF0AC01A
:1057700080919204882361F0853061F08091E80087
:1057800083FD0AC08091E80082FFF2CF80E0089597
:1057900082E0089583E0089581E0089520919904BE
:1057A00030919A042617370748F06115710539F4CE
:1057B0002091E8002E772093E80001C0B901FC0198
:1057C00020E06115710591F180919204882309F41C
:1057D00040C0853009F43FC08091E80083FD3DC0A2
:1057E0008091E80082FD2FC08091E80080FFE9CF22
:1057F0002091F3008091F20090E0922B61157105E9
:1058000059F08830910540F424912093F1003196AD
:10581000615071090196F2CF21E0089709F020E06C
:105820008091E8008E778093E800CBCF2111CCCF18
:105830000AC080919204882361F0853061F08091E4
:10584000E80083FD0AC08091E80082FFF2CF80E08B
:10585000089582E0089583E0089581E00895982FE7
:10586000973068F59093E900981739F07091EC0043
:105870002091ED005091F00003C0242F762F50E0CE
:1058800021FD02C09F5FECCF3091EB003E7F309353
:10589000EB003091ED003D7F3093ED003091EB0057
:1058A00031603093EB007093EC002093ED00509347
:1058B000F0002091EE0027FDE5CF80E008958F7085
:1058C0008093E90081E008958091930487FF11C0DF
:1058D0008091E80082FD05C0809192048111F8CF8B
:1058E00011C08091E8008B770BC0809192048823CF
:1058F00049F08091E80080FFF8CF8091E8008E7732
:105900008093E80008952091E4003091E50095E649
:105910004091EC00842F817040FF23C08091E8000B
:1059200080FD1DC080919204882399F0853099F004
:105930008091EB0085FD11C04091E4005091E5009D
:105940002417350729F3915011F09A01E1CF84E033
:10595000089582E0089583E0089581E0089580E04D
:1059600008954091E80042FFDDCF08950E94242D64
:105970000E942C2DE0EEF0E0808181608083E8EDD4
:10598000F0E080818F77808319BCA7EDB0E08C9127
:105990008E7F8C9380818F7E8083109291040895F6
:1059A0000F931F93CF93DF930E94242D0E942C2DE1
:1059B000C8EDD0E088818F7788838881806888836C
:1059C00088818F7D888319BC1092920410928E0476
:1059D0001092900410928F0400EE10E0F801808184
:1059E0008B7F808388818160888342E060E080E0F3
:1059F0000E942F2CE1EEF0E080818E7F8083E2EE2A
:105A0000F0E0808181608083808188608083F801FC
:105A100080818E7F8083888180618883DF91CF91B0
:105A20001F910F910895E8EDF0E080818F7E8083D3
:105A3000E7EDF0E080818160808384E082BF81E0D7
:105A4000809391040C94D02CE8EDF0E080818E7F5F
:105A500080831092E20008951092DA001092E10023
:105A600008951F920F920FB60F9211242F933F9318
:105A70004F935F936F937F938F939F93AF93BF9356
:105A8000EF93FF938091E10082FF0BC08091E200D1
:105A900082FF07C08091E1008B7F8093E1000E942C
:105AA000A72F8091DA0080FF1FC08091D80080FF6F
:105AB0001BC08091DA008E7F8093DA008091D9003C
:105AC00080FF0DC080E189BD82E189BD09B400FE7F
:105AD000FDCF81E0809392040E94932905C019BCF8
